:0802A10002140603021605F029
:100290007C007D0A120110EF1F70011E144E70F7D2
:0102A000223B
:1001B2007E00120214120290C290D2917FC87E0079
:0C01C2001201EA120290C2917F147E002C
:1001CE00AB07AA060BBB00010AEB1B70011A144AFF
:0C01DE0060097F847E0312029080EE22F4
:0300230002016572
:07016500C0E0C0D075D00816
:10016C00309820AF99C298E5102408FDE433FCE5E3
:10017C00126D7001EC600CAE120512EE54072421C6
:10018C00F8A60F30991BC299E51165136011AF11D8
:10019C000511EF54072429F8E6F599C2018002C233
:0101AC000052
:0501AD00D0D0D0E032CB
:10023D00200122200005D2008F9922C2ACAE1305F9
:10024D0013EE54072429F8A607E51365115407701A
:06025D0002D201D2AC2226
:10027A00AD07BD0A082001FD7F0D12023D2001FDD8
:06028A00AF0512023D2247
:10026300E512651060FAC2ACAF100510EF54072415
:0602730021F8E6FFD2AC09
:010279002262
:10000300E4F510F512F511F513C200C2014389207E
:0E001300759850758DFD758BFDD28ED2AC2286
:0602AA00120003D2AF2296
:10021400C3EF9438EE6480947F50057E057F3B22C3
:10022400D3EF94C8EE6480948040057E067FCB2291
:09023400E5152FFFE5143EFE2242
:1001EA00C3EF9438EE6480947F50057E067FB82270
:1001FA00D3EF94C8EE6480948040057E057F282260
:0A020A00C3E5179FFFE5169EFE22D4
:1000B2001202AA900014D3E58294C8E58364809466
:1000C200805024D290AF82AE83120214120290C2E8
:1000D20090D291AF82AE831201C274142582F5824E
:1000E200E43583F58380CF900000D2907FC812015F
:1000F200B2A3E582640A458370F0900000D2907F3B
:0D010200141201B2A3E582642E458370F053
:01010F0022CD
:03000000020026D5
:0C002600787FE4F6D8FD75813002006D93
:10011000BC000BBE0029EF8DF084FFADF022E4CCD3
:10012000F875F008EF2FFFEE33FEEC33FCEE9DEC9C
:10013000984005FCEE9DFE0FD5F0E9E4CEFD22EDE2
:10014000F8F5F0EE8420D21CFEADF075F008EF2F2C
:10015000FFED33FD4007985006D5F0F222C398FD1D
:050160000FD5F0EA22BA
:100032000200B2E493A3F8E493A34003F68001F232
:1000420008DFF48029E493A3F85407240CC8C333CF
:10005200C4540F4420C8834004F456800146F6DF9E
:10006200E4800B01020408102040809002A1E47E8B
:10007200019360BCA3FF543F30E509541FFEE49393
:10008200A360010ECF54C025E060A840B8E493A35A
:10009200FAE493A3F8E493A3C8C582C8CAC583CA85
:1000A200F0A3C8C582C8CAC583CADFE9DEE780BE3D
:0102A9000054
:00000001FF
