:0300230002007B5D
:07007B00C0E0C0D075D00801
:10008200309820AF99C298E5102408FDE433FCE5CE
:10009200126D7001EC600CAE120512EE54072421B1
:1000A200F8A60F30991BC299E51165136011AF11C3
:1000B2000511EF54072429F8E6F599C2018002C21E
:0100C200003D
:0500C300D0D0D0E032B6
:1000F300200122200005D2008F9922C2ACAE130545
:1001030013EE54072429F8A607E513651154077065
:0601130002D201D2AC2271
:10014C00AD07BD0A082001FD7F0D1200F32001FD53
:06015C00AF051200F322C2
:10013500E512651060FAC2ACAF100510EF54072444
:0601450021F8E6FFD2AC38
:01014B002291
:10000300E4F510F512F511F513C200C2014389207E
:0E001300759850758DFD758BFDD28ED2AC2286
:06017F00120003D2AF22C2
:100162007C007D0A120026EF1F70011E144E70F7EC
:01017200226A
:10011900AB07AA060BBB00010AEB1B70011A144AB4
:0C01290060097F847E0312016280EE22D8
:1000C80012017FD296D295D294D293D291D2907FB8
:1000D800647E00120119C296C295C294C293C2915D
:0B00E800C2907F647E0012011980D8D6
:0300000002017387
:0C017300787FE4F6D8FD7581300200C8EA
:10002600BC000BBE0029EF8DF084FFADF022E4CCBE
:10003600F875F008EF2FFFEE33FEEC33FCEE9DEC87
:10004600984005FCEE9DFE0FD5F0E9E4CEFD22EDCD
:10005600F8F5F0EE8420D21CFEADF075F008EF2F17
:10006600FFED33FD4007985006D5F0F222C398FD08
:050076000FD5F0EA22A5
:00000001FF
