:020000040800F2
:100000004004002001010008691E00086B1E000862
:100010006F1E0008731E0008771E00080000000015
:100020000000000000000000000000007B1E00082F
:100030007D1E0008000000007F1E0008811E0008D1
:100040001B0100081B0100081B0100081B01000820
:100050001B0100081B0100081B0100081B01000810
:100060001B0100081B0100081B0100081B01000800
:100070001B0100081B0100081B0100081B010008F0
:100080001B0100081B0100081B0100081B010008E0
:100090001B0100081B0100081B0100081B010008D0
:1000A0001B0100081B0100081B0100081B010008C0
:1000B000B92200081B0100081B0100081B010008F1
:1000C0001B0100081B0100081B0100081B010008A0
:1000D0001B010008CB1E0008F51E00080D1F0008BC
:1000E000831E00081B0100081B010008DFF80CD06C
:1000F00002F0E4FB00480047FB1D0008400400201C
:100100000648804706480047FEE7FEE7FEE7FEE7B1
:10011000FEE7FEE7FEE7FEE7FEE7FEE7ED0100088B
:10012000ED00000800210020674A126842F4803286
:10013000654B1A6000BF644A126802F40030491C23
:1001400010B9B1F5A06FF6D15F4A126812F4003F02
:1001500001D0012000E00020012842D15B4A126852
:1001600042F01002594B1A601A46126822F003023C
:100170001A601A46126842F002021A60524A526825
:10018000514B5A601A4652685A601A46526842F4F5
:1001900080625A601A46526822F47C125A601A46EB
:1001A000526842F4E8125A601A46126842F08072AD
:1001B0001A6000BF444A126812F0007FFAD0424A27
:1001C000526822F00302404B5A601A46526842F0CD
:1001D00002025A6000BF3C4A526802F00C02082A30
:1001E000F9D1704710B5FFF79DFF10BD10B5364827
:1001F000006840F00100344908600846406834490E
:1002000008403149486008460068324908402E4994
:1002100008600846006820F48020086008464068AE
:1002200020F4FE0048604FF41F008860FFF7DAFFFB
:100230004FF000602849086010BD10B50021002073
:100240000022214B5B6803F00C0121B1042906D088
:10025000082928D107E0214B214C236027E01F4BC0
:100260001F4C236023E0184B5B6803F47010164B9F
:100270005B6803F48032022303EB904022B9194BF0
:100280004343174C23600DE00F4B5B6813F4003FB2
:1002900004D0144B4343124C236003E00F4B434301
:1002A0000F4C236003E00D4B0D4C236000BF00BFDB
:1002B000054B5B68C3F303130B4CE15C084B1B68F5
:1002C000CB40074C236010BD0010024000200240CC
:1002D0000000FFF8FFFFF6FE08ED00E000127A00D4
:1002E0000000002000093D000400002036490143C1
:1002F000364A1160704770B5002100230F22C47880
:100300004CB3324C246804F4E064C4F5E0644FEA72
:100310001421C1F1040322FA01F2447804FA03F132
:10032000847804EA020444EA01014FEA0111284CEE
:100330000678A155047804F01F054FF0010404FA73
:1003400005F405784FEA65154FF0E02606EB8505C4
:10035000C5F8004109E0047804F01F050124AC4011
:100360001C4D0678761145F8264070BD1A4A0A40A1
:1003700002431A4B1A60704741B1194A126842EAA7
:1003800000024FF0E023C3F8102D07E0144A126872
:1003900022EA00024FF0E023C3F8102D7047042832
:1003A00008D14FF0E021096941F004014FF0E0224B
:1003B000116107E04FF0E021096921F004014FF0DD
:1003C000E0221161704700000000FA050CED00E02A
:1003D00000E400E080E100E080FFFF1F08ED00E0A6
:1003E00010ED00E00020474908604749C1F80404C7
:1003F0004649086001F10401086045484549086024
:10040000704700213F498279DAB33F4AD2F800248D
:1004100003689A433C4BC3F800241A46D2F80424DC
:1004200003689A4301F104031A60027911440A68CF
:10043000036842EA03020A60334AD2F808240368D8
:1004400022EA0302304BC3F808241A46D2F80C24DF
:10045000036822EA0302304B1A604279102A11D154
:10046000294AD2F8082403681A43274BC3F8082402
:100470001A46D2F80C2403681A43234BC3F80C2401
:100480000EE007E01F49427911440A6803681A43E5
:100490000A6005E0027911440A6803689A430A6019
:1004A00070470021016001710C21417100218171AF
:1004B00070471A49096841EA0001134AC2F810144A
:1004C000704701460020134A12680A4201D00120F9
:1004D00000E0002070470F49086070470146002087
:1004E0000022084B1B6803EA0102074BD3F81434BF
:1004F0000B4202D00AB1012000E0002070470549FC
:1005000008607047000401400000014008040140F9
:10051000FFFF0F00140401400C04014010040140CF
:1005200010B50446CA48844208D10121042000F0D5
:1005300024FB0021042000F020FB46E0C548844253
:1005400008D10121082000F018FB0021082000F04C
:1005500014FB3AE0C048844208D10121102000F089
:100560000CFB0021102000F008FB2EE0BB48844269
:1005700008D10121202000F000FB0021202000F004
:10058000FCFA22E0B648844208D10121402000F064
:10059000F4FA0021402000F0F0FA16E0B14884425D
:1005A00008D10121802000F0E8FA0021802000F02D
:1005B000E4FA0AE0AC48844207D10121801500F03A
:1005C000DCFA0021A01500F0D8FA10BD10B5012109
:1005D000084600F0D2FA0021012000F0CEFA10BD4A
:1005E0002DE9F041024600250026002000230024CA
:1005F000002791F803C00CF00F0591F803C01CF020
:10060000100F03D091F802C04CEA0505B1F800C004
:100610001CF0FF0F31D0146800202BE04FF0010CCC
:100620000CFA00F3B1F800C00CEA03069E4220D198
:1006300083004FF00F0C0CFA03F7BC4305FA03FCE0
:100640004CEA040491F803C0BCF1280F06D14FF026
:10065000010C0CFA00FCC2F814C00AE091F803C0C7
:10066000BCF1480F05D14FF0010C0CFA00FCC2F8A8
:1006700010C0401C0828D1D31460B1F800C0BCF1F0
:10068000FF0F34DD546800202EE000F1080C4FF01D
:10069000010808FA0CF3B1F800C00CEA03069E4208
:1006A00021D183004FF00F0C0CFA03F7BC4305FA7D
:1006B00003FC4CEA040491F803C0BCF1280F05D1F7
:1006C00000F1080C08FA0CF8C2F8148091F803C085
:1006D000BCF1480F07D100F1080C4FF0010808FAEF
:1006E0000CF8C2F81080401C0828CED35460BDE836
:1006F000F0814FF6FF710180022181700421C170E9
:1007000070470246002093680B4201D0012000E0B0
:10071000002070470146886880B27047024600207A
:10072000D3680B4201D0012000E000207047014651
:10073000C86880B2704701617047416170470AB173
:10074000016100E041617047C16070474FF4803241
:100750000A438261816182618269826970470246CF
:100760000020424B18684FF68073184040EA021090
:1007700008433E4B186070473D49C8617047F0B56B
:100780000A46002300240021002500F00046B6F1AF
:10079000004F02D1354EF16901E0344E7168C0F36B
:1007A000034583B200F44016B6F5401F08D121F08E
:1007B00070612E4E766826F070662C4F7E6012E0D7
:1007C00000F48016B6F5801F06D1032606FA05F45C
:1007D000A14341F0706106E0460D360103FA06F6CA
:1007E000B14341F0706122B1460D360103FA06F6BD
:1007F000314300F00046B6F1004F02D11B4EF161CB
:1008000001E01A4E7160F0BD30B500228B071C0F5D
:100810000F2303FA04F2154B08338C1053F82430DD
:100820009343124C08348D1044F8253023468C1025
:1008300053F824308C07240F00FA04F423430B4CA4
:1008400008348D1044F8253030BD0A4908607047DF
:1008500000080140000C014000100140001401405C
:1008600000180140001C0140002001400000014030
:1008700000002042DC002042DB48006840F001001C
:10088000D949086008464068D8490840D6494860B8
:1008900008460068D6490840D34908600846006801
:1008A00020F4802008600846406820F4FE0048607C
:1008B0004FF41F0088607047CB49096821F48031EC
:1008C000C94A11601146096821F480211160B0F510
:1008D000803F03D0B0F5802F0ED106E0C2490968F1
:1008E00041F48031C04A116007E0BF49096841F412
:1008F000A021BD4A116000E000BF00BF704710B5E5
:1009000001460022002300204A11012A02D1B64CE0
:10091000236806E0022A02D1B34C236A01E0B24CFC
:10092000636A01F01F02012494401C4201D001209F
:1009300000E0002010BD70B500240025002600BF97
:100940003120FFF7DCFF0646641CB4F5A06F01D030
:10095000002EF5D03120FFF7D2FF08B1012500E0CD
:100960000025284670BD014600209F4A106820F0EF
:10097000F80040EAC100106070479E490860704767
:1009800002460020984B586820F47C1042EA01038C
:100990001843954B58607047964908667047014662
:1009A0000020914A506820F00300084350607047CF
:1009B0008D48406800F00C007047014600208A4ACC
:1009C000506820F0F0000843506070470146002056
:1009D000854A506820F4E060084350607047014643
:1009E0000020814A506820F4605040EAC100506005
:1009F000704729B17C4A527A02437B4B5A7206E017
:100A0000794A527AC343DBB21A40774B5A72704725
:100A100079490860704701460020734A506820F405
:100A200040400843506070470021744A11706E4A7C
:100A300082F82010012802D0042808D103E0012107
:100A40006E4A117004E005216C4A117000E000BF8D
:100A500000BF70476A49086070476349096A0143EB
:100A6000614A1162704767490860704730B50021DC
:100A70000022002400235C4D6D6805F00C0121B1BB
:100A8000042905D0082923D105E05F4D056022E047
:100A90005D4D05601FE0544D6D6805F47012524DB8
:100AA0006D6805F48034022505EB92421CB9574D60
:100AB000554305600BE04C4D6D6815F4003F03D0C5
:100AC000524D5543056002E04F4D5543056002E02D
:100AD0004D4D056000BF00BF434D6D6805F0F0014E
:100AE00009094B4D6B5C0568DD4045603E4D6D6806
:100AF00005F4E061090A464D6B5C4568DD408560A0
:100B0000394D6D6805F46051C90A414D6B5C45680B
:100B1000DD40C560344D6D6805F44041890B3D4DA5
:100B20006B5CC568B5FBF3F5056130BD29B12E4A94
:100B3000526902432C4B5A6104E02B4A52698243AA
:100B4000294B5A61704729B1274A92690243264BC3
:100B50009A6104E0244A92698243234B9A61704768
:100B600029B1214AD26902431F4BDA6104E01E4ACF
:100B7000D26982431C4BDA61704729B11A4AD268A4
:100B80000243194BDA6004E0174AD2688243164BDD
:100B9000DA60704729B1144A12690243124B1A6194
:100BA00004E0114A126982430F4B1A6170471A49D7
:100BB000086070470F49C86470470B49C871704797
:100BC0000948406A40F08070074948627047014612
:100BD0000020054A92680A4201D0012000E000206E
:100BE0007047014988727047001002400000FFF80A
:100BF000FFFFF6FE00004242D800424220100240B1
:100C0000800442423C04424200127A0000093D0046
:100C100014000020240000204004424210B5044685
:100C2000FF48844208D10121C014FFF7A6FF00212C
:100C3000E014FFF7A2FFC4E0B4F1804F08D1012116
:100C40000846FFF7A7FF00210120FFF7A3FFB8E048
:100C5000F448844208D101210220FFF79BFF0021C4
:100C60000220FFF797FFACE0EF48844208D1012152
:100C70000420FFF78FFF00210420FFF78BFFA0E087
:100C8000EA48844208D101210820FFF783FF0021B0
:100C90000820FFF77FFF94E0E548844208D1012156
:100CA0001020FFF777FF00211020FFF773FF88E087
:100CB000E048844208D101212020FFF76BFF00218A
:100CC0002020FFF767FF7CE0DB48844208D1012148
:100CD0004014FFF752FF00216014FFF74EFF70E051
:100CE000D648844209D10121C804FFF746FF0021FC
:100CF0004FF40020FFF741FF63E0D148844209D15F
:100D000001210805FFF739FF00214FF48010FFF79C
:100D100034FF56E0CB48844209D101214805FFF752
:100D20002CFF00214FF40010FFF727FF49E0C648D1
:100D3000844208D101214020FFF72CFF00214020F0
:100D4000FFF728FF3DE0C148844208D101218020FF
:100D5000FFF720FF00218020FFF71CFF31E0BC4897
:100D6000844208D101218015FFF714FF0021A0154E
:100D7000FFF710FF25E0B748844209D1012108049C
:100D8000FFF7FBFE00214FF48030FFF7F6FE18E07E
:100D9000B148844209D101214804FFF7EEFE002149
:100DA0004FF40030FFF7E9FE0BE0AC48844208D175
:100DB00001218804FFF7E1FE00214FF48020FFF7B6
:100DC000DCFE10BD00220288954B98420ED09A4B53
:100DD00098420BD0B0F1804F08D0924B984205D08A
:100DE000914B984202D0914B984204D14FF68F73A9
:100DF0001A404B881A438E4B984207D08D4B98422D
:100E000004D04FF6FF431A40CB881A4302808B88E8
:100E100083850B880385824B98420BD0864B984282
:100E200008D08C4B984205D08B4B984202D08B4B0C
:100E3000984201D10B7A038601238382704770B5F3
:100E4000002400220023058C4FF6FE7635400584F1
:100E5000028C8388048B4FF68F752C40B51E2C4076
:100E60000D882C43751E2A400D892A434D882A433C
:100E70006B4DA8420BD0704DA84208D0754DA842CA
:100E800005D0754DA84202D0744DA84213D14FF63B
:100E9000F7752A404D892A434FF6FB752A408D8805
:100EA0002A434FF6FF652B404FF6FF552B408D89A7
:100EB0002B43CD892B4383800483CD888586028490
:100EC00070BD70B5002400220023058C4FF6EF762C
:100ED00035400584028C8388048B48F6FF752C40CE
:100EE0004FF6FF452C400D882D0644EA15444FF679
:100EF000DF752A400D892D0542EA15424D882D05E2
:100F000042EA1542464DA84202D04B4DA8421BD1A1
:100F10004FF67F752A404D892D0542EA15424FF65E
:100F2000BF752A408D882D0542EA15424FF6FF35E0
:100F30002B404FF2FF752B408D89AD0443EA1543DA
:100F4000CD89AD0443EA154383800483CD880587AA
:100F5000028470BD70B5002400220023058C4FF67A
:100F6000FF6635400584028C8388848B4FF68F752D
:100F70002C404FF6FC752C400D882C434FF6FF5546
:100F80002A400D892D0642EA15424D882D0642EA77
:100F90001542234DA84202D0274DA8421BD14FF243
:100FA000FF752A404D892D0642EA15424FF6FF355E
:100FB0002A408D882D0642EA15424EF6FF752B40D9
:100FC0004DF6FF752B408D892D0543EA1543CD89DC
:100FD0002D0543EA154383808483CD888587028469
:100FE00070BD70B5002200230024058C4EF6FF76FC
:100FF00035400584038C8488828B48F6FF752A402F
:101000004FF6FF452A400D882D0642EA15424DF65F
:10101000FF752B400D892D0743EA15434D881FE0CE
:10102000002C01400004004000080040000C00407B
:10103000001000400014004000340140004C01400A
:10104000005001400054014000180040001C0040C6
:1010500000200040004001400044014000480140A1
:101060002D0743EA1543F94DA84202D0F84DA84296
:1010700006D14BF6FF752C408D89AD0544EA154429
:1010800084808283CD88A0F84050038470BD828B19
:101090004FF2FF331A408283828B0B0642EA1342DF
:1010A00082837047F0B50C461546002200210026C9
:1010B000078C4EF6FF7C07EA0C070784828B018CB5
:1010C00027073E0C40F6FF473A402F0642EA1742F8
:1010D0001F0742EA1742DD4FB8420ED0DC4FB8423C
:1010E0000BD0B0F1804F08D0DA4FB84205D0DA4FBC
:1010F000B84202D0D94FB84206D14DF6FF773940F9
:1011000046F48057394305E047F6FF57394044F429
:101110008057394382830184F0BD828B4FF6F3738D
:101120001A408283828B0A4382837047F0B50C4653
:101130001546002200210026078C4FF6FF6C07EAB7
:101140000C070784828B018C27063E0C4FF60C7728
:101150003A401F0545EA17473A43BC4FB8420ED004
:10116000BB4FB8420BD0B0F1804F08D0B94FB84256
:1011700005D0B94FB84202D0B84FB84206D14FF6A9
:10118000FF57394046F48077394305E04FF2FF5767
:10119000394044F48077394382830184F0BD028B67
:1011A0004FF2FF331A400283028B0B0642EA1342CE
:1011B00002837047F0B50C46154600220021002638
:1011C000078C4FF6EF7C07EA0C070784028B018C33
:1011D00027053E0C40F6FF473A401F0742EA1742F8
:1011E0002F0642EA1742994FB8420ED0984FB842A4
:1011F0000BD0B0F1804F08D0964FB84205D0964F33
:10120000B84202D0954FB84206D14FF6DF77394049
:1012100046F01007394305E04FF65F77394044F058
:101220001007394302830184F0BD028B4FF6F3733C
:101230001A400283028B0A4302837047F0B50C46C2
:10124000154600220021068C4FF6FE773E400684AC
:10125000028B018C4FF60C7632401E0545EA16468D
:1012600032437A4EB0420ED0794EB0420BD0B0F13C
:10127000804F08D0774EB04205D0774EB04202D0B2
:10128000764EB04206D14FF6FD76314044F001066D
:10129000314305E04FF6F576314044F00106314325
:1012A00002830184F0BD70B505460C46674885424F
:1012B0000ED0674885420BD0B5F1804F08D0654805
:1012C000854205D06448854202D06448854200D1F9
:1012D00000E000BF208850B92389A2886188284691
:1012E000FFF7ACFFE1882846FFF79FFF25E0208845
:1012F00004280AD12389A28861882846FFF75AFF6B
:10130000E1882846FFF74BFF17E0208808280AD11C
:101310002389A28861882846FFF708FFE1882846CC
:10132000FFF7FBFE09E02389A28861882846FFF7C2
:10133000B9FEE1882846FFF7AAFE70BD2DE9F0410D
:1013400005460C4600260127608808B9022600E001
:101350000026A088012801D1022700E0012720886B
:10136000A0B92389A28861882846FFF767FFE18832
:101370002846FFF75AFF23893A4631462846FFF7A9
:1013800019FFE1882846FFF70AFF13E02389A288A6
:1013900061882846FFF70EFFE1882846FFF7FFFE29
:1013A00023893A4631462846FFF748FFE188284618
:1013B000FFF73BFFBDE8F0810A884B881A438B8812
:1013C0001A43CB881A430B891A434B891A438B89DA
:1013D0001A43A0F8442070474FF6FF718180002126
:1013E0000180C180418001727047002101804180ED
:1013F0008180C180018141818181C181704700214B
:1014000001804180012181800021C18001817047DC
:101410000021018041808180C180018141818181E1
:10142000704721B1028842F00102028004E0028884
:101430004FF6FE731A400280704789B1B0F844201D
:1014400042F40042A0F8442010E00000002C0140CB
:10145000003401400004004000080040000C00403F
:10146000B0F84420C2F30E02A0F84420704710B533
:101470001AB183890B43838104E08389CC43A4B2EE
:101480002340838110BD8182704741EA0203A0F8A6
:101490004830704710B51AB183890B43838104E04B
:1014A0008389CC43A4B22340838110BD01894FF6C8
:1014B000F8721140018170470A46002101894FF6F8
:1014C0008F73194011430181704730B504460D46B2
:1014D00029462046FFF7F0FF208940F007002081D1
:1014E00030BD2DE9F04104460D4616461F46602DDD
:1014F00006D13B46012231462046FFF75BFE05E060
:101500003B46012231462046FFF798FE29462046F9
:10151000FFF7D2FF208940F007002081BDE8F0816D
:1015200030B50C4600210189C9B21D0642EA1545B5
:1015300025432943018130BD2DE9F04105460E4682
:1015400017469846002443463A4631462846FFF758
:10155000E7FF2C894FF6F8710C4044F007044FF672
:101560008F710C4044F070042C81BDE8F081F0B51F
:1015700004460D4616461F463B463246294620463F
:10158000FFF7CEFF208940F480402081F0BD018527
:10159000828270470A46002101884FF68F731940F6
:1015A000114301807047F0B50C4615461E460021D8
:1015B000002200230189028B038C4FF6F877394013
:1015C00021434FF6FC473A4040F201173A434FF6A9
:1015D000DD773B40370545EA17473B4301810283EE
:1015E0000384F0BD0A460021018B4FF68F7319402A
:1015F0001143018370470A460021018B48F6FF73AF
:101600001940130641EA1341018370470A4600213D
:10161000818B4FF68F7319401143818370470A46BF
:101620000021818B48F6FF731940130641EA1341EC
:101630008183704721B1028842F08002028004E079
:1016400002884FF67F731A400280704721B182886A
:1016500042F00402828004E082884FF6FB731A4055
:101660008280704721B1828842F00802828004E0C3
:1016700082884FF6F7731A408280704721B18288C2
:1016800042F00102828004E082884FF6FE731A4025
:10169000828070470A460021018B4FF6F77319408C
:1016A0001143018370470A460021018B4FF2FF73FB
:1016B0001940130641EA1341018370470A4600218D
:1016C000818B4FF6F77319401143818370470A46A7
:1016D0000021818B4FF2FF731940130641EA134139
:1016E000818370470A460021018B4FF6FB73194036
:1016F0001143018370470A460021018B4FF6FF33E7
:101700001940130641EA1341018370470A4600213C
:10171000818B4FF6FB7319401143818370470A4652
:101720000021818B4FF6FF331940130641EA134124
:10173000818370470A460021018B4FF67F73194061
:101740001143018370470A460021018BC1F30E014A
:10175000130641EA1341018370470A460021818B39
:101760004FF67F7319401143818370470A46002169
:10177000818BC1F30E01130641EA13418183704747
:101780000A460021018C4FF6FD7319401143018474
:1017900070470A460021018C4FF6F7731940114338
:1017A000018470470A460021018C4FF6DF7319400F
:1017B000130541EA1341018470470A460021018C58
:1017C0004FF67F731940130541EA134101847047B6
:1017D0000A460021018C4FF6FF531940130641EAD7
:1017E0001341018470470A460021018C4FF2FF73B8
:1017F0001940130641EA1341018470470A4600214B
:10180000018C4DF6FF731940130741EA134101841F
:10181000704730B5002301248C40A3B2048CDD4313
:10182000ADB22C400484048C02FA01F5ADB22C4315
:10183000048430BD30B5002304248C40A3B2048C52
:10184000DD43ADB22C400484048C02FA01F5ADB244
:101850002C43048430BD70B5034600200024184694
:10186000183001258D40ACB21D8CE643B6B2354030
:101870001D8409B1082909D100EB6100056825F034
:10188000700505600568154305600CE00D1FADB2DD
:1018900000EB6500056825F4E0450560056816065F
:1018A00045EA1645056070BD21B1028842F002028A
:1018B000028004E002884FF6FD731A4002807047F0
:1018C00021B1028842F00402028004E002884FF64F
:1018D000FB731A400280704721B1828842F0800277
:1018E000828004E082884FF67F731A4082807047BE
:1018F00002884FF6F7731A40028002880A4302807A
:10190000704782884FF68F731A40828082880A431C
:101910008280704702894FF6F8731A40028102896B
:101920000A430281704702894FF67F731A40028191
:1019300002890A430281704781847047818570471C
:10194000818670470187704781877047A0F84010F3
:10195000704702884FF6FF431A40028002880A430C
:10196000028070470146888E70470146088F704795
:101970000146888F70470146B1F840007047014624
:10198000888C70470146088D704702460020138AF4
:101990000B4201D0012000E000207047CA430282C0
:1019A000704730B50246002000230024158A05EA5E
:1019B0000103958905EA010413B10CB1012000E08F
:1019C000002030BDCA4302827047000010B50446B3
:1019D000FC48844209D101218803FFF7CEF8002199
:1019E0004FF48040FFF7C9F832E0F748844209D14C
:1019F00001214804FFF7CEF800214FF40030FFF733
:101A0000C9F825E0F148844209D101218804FFF793
:101A1000C1F800214FF48020FFF7BCF818E0EC4833
:101A2000844209D10121C804FFF7B4F800214FF422
:101A30000020FFF7AFF80BE0E648844208D101210F
:101A40000805FFF7A7F800214FF48010FFF7A2F870
:101A500010BD2DE9F04786B005460E460024A2468B
:101A600000BFA1460027B08900B100BF2F462C8AD5
:101A70004CF6FF700440F08804432C82AC894EF68B
:101A8000F3100440B0883189084371890843044346
:101A9000AC81AC8A4FF6FF400440B0890443AC826D
:101AA00001A8FEF7E3FFC748874202D1DDF810A086
:101AB00001E0DDF80CA0A88910F4004F08D00AEB73
:101AC000CA0000EB0A1031684900B0FBF1F807E0EA
:101AD0000AEBCA0000EB0A1031688900B0FBF1F88C
:101AE0006420B8FBF0F004012009642101FB108997
:101AF000A88910F4004F08D0322000EBC900B0FBD9
:101B0000F1F000F00700044308E0322000EB091078
:101B10006421B0FBF1F000F00F0004432C8106B00B
:101B2000BDE8F0874FF41651016000218180C1802B
:101B300001810C21418100218181704710B502464D
:101B40000020108A4FF2FF0318400B884C88234373
:101B50008C882343CC8823431843108210BD002176
:101B6000018041808180C180704721B1828942F427
:101B70000052828104E082894DF6FF731A4082810F
:101B80007047F0B503460024002600250020A1F58B
:101B900010676A3F00D100BF1846C1F3421401F03C
:101BA0001F06012707FA06F5012C01D10C3004E0CD
:101BB000022C01D1103000E014301AB107682F4315
:101BC000076002E00768AF430760F0BD10B51AB1C7
:101BD000838A0B43838204E0838ACC43A4B22340EC
:101BE000838210BD028A4FF6F0731A400282028A85
:101BF0000A430282704782894FF2FF731A40828142
:101C000082890A438281704721B1828942F00202AF
:101C1000828104E082894FF6FD731A408281704709
:101C2000028A4FF6DF731A400282028A0A43028256
:101C3000704721B1028A42F48042028204E0028AA3
:101C40004BF6FF731A4002827047C1F3080282808C
:101C5000704701468888C0F308007047818941F0C9
:101C6000010181817047028BD2B20283028B42EA6A
:101C7000012202837047028B02F47F420283028BAF
:101C80000A430283704721B1828A42F02002828295
:101C900004E0828A4FF6DF731A408282704721B1D6
:101CA000828A42F01002828204E0828A4FF6EF7349
:101CB0001A408282704721B1828A42F008028282F1
:101CC00004E0828A4FF6F7731A408282704721B18E
:101CD000828942F40042828103E08289C2F30E02CB
:101CE0008281704721B1828A42F40062828204E0DC
:101CF000828A4FF2FF731A4082827047828A4FF6BF
:101D0000FB731A408282828A0A438282704721B121
:101D1000828A42F00202828204E0828A4FF6FD73D8
:101D20001A408282704702460020B1F5007F00D140
:101D300000BF13880B4201D0012000E00020704753
:101D400001F40072B2F5007F00D100BFCA430280E7
:101D5000704770B502460024002300250020A1F53D
:101D600010666A3E00D100BFC1F3421501F01F03A7
:101D7000012606FA03F3012D02D19689334006E0CD
:101D8000022D02D1168A334001E0968A33400C12AC
:101D9000012606FA04F41688344013B10CB1012070
:101DA00000E0002070BD10B500220023A1F51064F2
:101DB0006A3C00D100BF0A1201249440A3B2DC4364
:101DC000048010BD0038014000440040004800403D
:101DD000004C00400050004008B501210820FEF7EB
:101DE000B2FE4FF48070ADF8000048208DF803007B
:101DF00069461448FEF7F4FB08BD00F09DF800F0BA
:101E000052F900F001F900F097F8FFF7E5FF00F054
:101E10004AF900F0F9F800F083F912E000F0E9F96E
:101E20004FF480710748FEF76CFC18B906A000F06B
:101E300089FD02E008A000F085FD4FF47A7000F003
:101E4000B2F8EBE7000C0140BAECCDE2D0C5BAC560
:101E5000B6AACAA70D0A0000BAECCDE2D0C5BAC531
:101E6000D5FDB3A30D0A0000704700BFFEE700BF19
:101E7000FEE700BFFEE700BFFEE770477047704710
:101E8000704710B54FF48060FEF728FB58B1254825
:101E9000006808B9012000E00020224908604FF4E2
:101EA0008060FEF72CFB4FF40060FEF717FB58B183
:101EB0001D48006808B9012000E000201A490860A8
:101EC0004FF40060FEF71BFB10BD10B540F225512A
:101ED0001648FFF73EFF38B11448FFF7BAFEC4B208
:101EE00021461248FFF7B1FE40F227710F48FFF775
:101EF00030FF10BD10B540F225510D48FFF729FF06
:101F000040F227710A48FFF724FF10BD10B540F2D8
:101F100025510848FFF71DFF40F227710548FFF7DC
:101F200018FF10BDA8012342AC0123420038014034
:101F3000004400400048004010B56FF00400FEF778
:101F40002EFA2A4800682A49B0FBF1F029490870A6
:101F5000084600784FF47A7148432749088010BD3D
:101F60000146244A12784A434FF0E0235A61002286
:101F70009A611A46126942F001021A6100BF4FF0DD
:101F8000E022106910F0010F02D010F4803FF6D06B
:101F90004FF0E022126922F001024FF0E0231A61B3
:101FA00000229A6170470146134A12884A434FF053
:101FB000E0235A6100229A611A46126942F0010236
:101FC0001A6100BF4FF0E022106910F0010F02D03B
:101FD00010F4803FF6D04FF0E022126922F00102A7
:101FE0004FF0E0231A6100229A6170470000002040
:101FF00000127A00280000202A00002010B54FF4BB
:10200000A060FEF773F910BD08B54FF4E060FEF76D
:102010006DF925208DF8000000208DF802000120C8
:102020008DF803006846FEF766F926208DF800005B
:1020300001208DF802008DF803006846FEF75BF979
:1020400027208DF8000002208DF8020001208DF875
:1020500003006846FEF74FF908BD000010B50121E6
:1020600044F20500FEF76FFD10BD08B56846FEF7A7
:1020700040FB4FF48060ADF8000004208DF80300B1
:1020800069462548FEF7ACFA4FF40070ADF8000041
:1020900003208DF8020018208DF8030069461E48C1
:1020A000FEF79EFA08BD1FB5FFF7D8FFFFF7DDFF6B
:1020B0004FF4165000900020ADF80400ADF8060073
:1020C000ADF80800ADF80C000C20ADF80A00694628
:1020D0001248FFF7BEFC012240F225510F48FFF7DE
:1020E00050FD002240F227710C48FFF74AFD012104
:1020F0000A48FFF73AFD1FBD70B504460D46E1B230
:102100000648FFF7A2FD00BF80210448FFF70BFE41
:102110000028F9D0204670BD000801400038014079
:1021200008B501210820FEF70EFD4FF48050ADF8F0
:10213000000004208DF8030003208DF8020069469A
:102140003948FEF74DFA4FF40050ADF8000010206A
:102150008DF8030003208DF8020069463248FEF72F
:102160003FFA4FF440513048FEF7E5FA47210A2084
:1021700000F078F808BD10B501202C4908604FF038
:102180000F00FFF7EDFE00202949C1F8B40110BD92
:102190002DE9F0414FF08040FFF7F1FB2549086041
:1021A0002548008800EB8000096801EB40002149C8
:1021B00008600846006800F020F904461F4A204BDA
:1021C00000F0AAF8064600F03BF91E4908600846F0
:1021D000006800F01FF9044602460B461AA000F002
:1021E000B1FB00204FF08041888413490880BDE88E
:1021F000F08110B5FFF7BFFF00BF19480068002845
:10220000FBD04FF001014FF08040FFF70AF900BF0B
:10221000134800680128FBD000214FF08040FFF7F1
:1022200000F9FFF7B5FF10BD000C0140B481214259
:102230000080214234000020300000209CC420B0E7
:102240007268913F2C0000200D0AB3ACC9F9BEE0C2
:10225000C0EBA3BA252E336620636D0D0A00000083
:10226000308121427FB505460C4601210846FEF724
:1022700077FCADF80850ADF804400020ADF80A0036
:10228000ADF8060001A94FF08040FEF79BFD01224A
:1022900011469007FFF7EBF81C208DF80000022094
:1022A0008DF8010003208DF8020001208DF8030055
:1022B0006846FEF720F87FBD10B501218807FFF7BB
:1022C00070FBC0B101218807FFF77CFB0A4800883A
:1022D000401C0949088008460088B0F5FA6F0AD109
:1022E000002008800549086005A000F02BFB4FF492
:1022F000FA70FFF758FE10BD3000002034000020B7
:102300000D0AB3ACC9F9CEDECFECD3A6A3A8B3AC0B
:10231000BEE0A3A90D0A00002DE9FE4F81EA0304E7
:1023200021F0004504F0004423F000414FF0000A82
:10233000009450EA050302D052EA010304D10020C0
:10234000014603B0BDE8F08FC1F30A53C5F30A5448
:102350002344A3F2F3330193A0FB02B3C5F31305A7
:1023600045F4801CC1F3130141F480180CFB0233C7
:1023700000FB083E810A930A41EA8C5143EA8853E4
:10238000A1FB03474FEA9C2505FB03734FEA982600
:1023900001FB06373D05260545EA1435BBEB060172
:1023A0006EEB0503850E920E45EA8C1542EA881203
:1023B000A5FB0206261E67EB00070C0D44EA03345A
:1023C000A61947EB1350C1F313044FF0000319464D
:1023D000E5FB02014FEA033545EA1455019B4FEA3C
:1023E0000432009CA3F10C03CDE900A445EA0605E4
:1023F00002932B4600F0CEF8A3E70EB5002240F280
:102400003343CDE9002202931346002100F0C2F8C5
:1024100003B000BD00F0004230F000400DD0C10D0F
:1024200001F5607142EA01510022C0F31600520723
:1024300042EAD0024007114370470020014670472E
:1024400001F0004230B421F0004150EA010306D00F
:102450000B0DA3F56073C1F31301002B02DC30BC3C
:1024600000207047440F44EAC104C100A01830BCEA
:1024700000EBC35000F049B830B50B4601460020D0
:102480002022012409E021FA02F59D4205D303FA36
:1024900002F5491B04FA02F52844151EA2F10102B7
:1024A000F1DC30BD2DE9F05F0546002092469B46E9
:1024B00088460646814640241DE028464146474658
:1024C000224600F01CFAB0EB0A0052465B4671EB64
:1024D0000B0110D310461946224600F001FA2D1ABE
:1024E00067EB01084F4622460120002100F0F8F971
:1024F00017EB00094E41201EA4F10104DDDC484623
:1025000031462A464346BDE8F09F0029A8BF7047E0
:10251000401C490008BF20F00100704710B4B0FA19
:1025200080FC00FA0CF050EA010404BF10BC7047B4
:1025300049B1CCF1200421FA04F411FA0CF118BFCE
:10254000012121430843A3EB0C01CB1D4FEA00619D
:102550004FEA102048BF0020BCBF10BC704700EB02
:10256000C35010440029A4BF10BC7047401C490050
:1025700008BF20F0010010BC704710B5002B08DA2E
:10258000401C41F1000192185B411A4301D120F037
:10259000010010BD2DE9FF4D934611B1B1FA81F252
:1025A00002E0B0FA80F22032924600F099F9039AE4
:1025B0000746884640EA0B0011435B46084304D1B6
:1025C0003846414604B0BDE8F08D114653EA02009A
:1025D00016D0CAF14002584600F091F904460D4663
:1025E0004FF0010658465246039900F079F9084326
:1025F00000D10026344345EAE675274345EA08083A
:102600000E984FF00005A0EB0A014FEAD7200A31DF
:102610004FEA47532A4640EA48504FEAD82402D5A9
:1026200000200146CEE7281844EB0151DDE90C45B6
:10263000001904B06941BDE8F04D9EE72DE9FE4F59
:10264000074681EA0300C00F0E46019021F00041C9
:1026500023F00044B81AA14105D238463146174646
:102660001E460B46024623F00040104304D1384674
:10267000314603B0BDE8F08F350DC5F30A00C3F352
:102680000A510290401A0090402867DAC3F3130001
:1026900040F4801B0198924620B10023D2EB030A3C
:1026A00063EB0B0B00985946C0F14002504600F016
:1026B00017F980460C4650465946009A00F02FF90B
:1026C000C0197141EF1785EA11533B433FD0019A7E
:1026D0004AB3009A012A11DC0022801A61EB0551ED
:1026E0004FF0004303EA0555CDE90025801841F578
:1026F000801142462346FFF74DFFBAE72E0500251D
:10270000401B61EB0601401941F58012001852414F
:102710002818A6F5001343EB020140EAD47018EB29
:102720000808644113E064084FEA38084FF00002DB
:1027300044EAC0744FEA0553801A61EB0301801824
:1027400041F5801149084FEA30008018594142464E
:10275000234603B0BDE8F04FFFF70FBF01980122F9
:1027600040000023D0EB020263EBE07301984FEAD4
:10277000E074381A66EB0401EBE783F000435DE791
:1027800081F000415AE72DE9F04D81EA030404F09D
:10279000004B21F0004714464FF0000A23F000419F
:1027A00050EA070220D054EA01021DD0C1F30A55B5
:1027B0000246C1F31300C7F30A56C7F3130340F4EC
:1027C000801143F48013A6EB0508101BD64608F2CF
:1027D000FD3873EB010002D308F1010801E0921803
:1027E0005B41B8F1000F03DA00200146BDE8F08D2F
:1027F00000204FF48015064607460EE0B2EB040CAD
:1028000073EB010C04D3121B064363EB01032F434C
:102810006D084FEA300092185B4150EA050CEDD18B
:1028200052EA030012D082EA040083EA0105284339
:1028300003D100224FF0004308E0101B8B4102D26D
:102840000122002302E06FF0010253101AEB060090
:1028500047EB085110EB0A0041EB0B01BDE8F04DCE
:10286000FFF78BBEC1F30A52C1F3130140F2FF33ED
:1028700041F480119A4202DA00200146704740F28A
:1028800033439A42A2F2334202DC524200F037B89C
:1028900000F026B830B5002904DB4FF00044404278
:1028A00064EB0101002B04DB4FF00044524264EB67
:1028B0000303994208BF904230BD0000064C074D0B
:1028C00006E0E06840F0010394E807009847103400
:1028D000AC42F6D3FDF70EFC0032000820320008AF
:1028E000202A04DB203A00FA02F1002070479140D0
:1028F000C2F1200320FA03F3194390407047202AC5
:1029000004DB203A21FA02F00021704721FA02F399
:10291000D040C2F120029140084319467047202A56
:1029200006DBCB17203A41FA02F043EAE07306E0F7
:1029300041FA02F3D040C2F1200291400843194607
:10294000704700000FB4054B10B503A9044A029864
:1029500000F0C2F810BC5DF814FB0000F92000087C
:102960003800002002E008C8121F08C1002AFAD16E
:1029700070477047002001E001C1121F002AFBD1FF
:10298000704700002DE9FF5FDDE90210020DDDF860
:1029900038B001430FD10F9801244AA3012807D072
:1029A00000980F9AC0E90031C0E90242BDE8FF9FDC
:1029B0006FEA0B01F4E7A2F2FF3244F610504243F3
:1029C00015140F9801280FD0A5EB0B00401C4FF0F9
:1029D00000043D4EDFF8F490B0F1000AA046C0F1CB
:1029E000000717DB074615E0CBF10000EFE7F8071B
:1029F00007D02246334640464946FFF78DFC8046C5
:102A000089462246334620463146FFF785FC044678
:102A10000E467F10002FEAD1DDE90201BAF1000F66
:102A200042464B4602DAFFF777FC01E0FFF7ABFEC8
:102A300004460E460022264BFFF72CFF03D84FF02A
:102A4000FF30014607E00022224B20463146FFF7C7
:102A5000F5FDFFF707FF102409E0002C0ADB0A222E
:102A60000023FFF71FFD019B30321A55641E50EA08
:102A70000102F2D1641C019AC4F1110314440F9AAB
:102A8000012A07D00122084301D15B450DDD002258
:102A90006D1C0DE0084303D1A3EB0B056D1E09E08F
:102AA00000204FF0110B0F908BE701DA00226D1E12
:102AB000002A86D000980F99C0E90231C0E900458C
:102AC00074E7000030000000000024400000F03FE8
:102AD0000000F0430000E03F2DE9FF4F95B00646AF
:102AE0009A460F460025F2E1252878D10024761C6D
:102AF000FB4AA046012106943378203B01FA03F0FB
:102B0000104202D00443761CF6E730782A2811D010
:102B10006FF02F023078A0F13001092915D80699FD
:102B200044F0020401EB810102EB41010844761CF0
:102B30000690EFE701CF0690002803DA404244F404
:102B40000054069044F00204761C30782E2817D1E9
:102B500016F8010F44F004042A280ED06FF02F025B
:102B60003078A0F1300109290AD808EB880102EB7E
:102B7000410100EB0108761CF2E757F8048B761C44
:102B800030786C280FD006DC4C2817D068280DD080
:102B90006A2814D104E0742810D07A280FD10DE0EF
:102BA00044F400140AE044F4801401E044F44014B6
:102BB0007178814202D1761C04F58014761C30783D
:102BC000864666280AD012DC582872D008DC80B30A
:102BD000452803D0462801D047281AD196E118E0AD
:102BE000632832D0642875D0652812D18EE1702810
:102BF0006ED008DC67286CD069286BD06E280DD0A9
:102C00006F2806D1A9E0732828D075286FD07828BE
:102C10006ED05246179990476D1C56E1C4F302508E
:102C2000022807D003280BD0042801CF0BD0056061
:102C30004BE150E101CF4FEAE571C0E9005144E1B9
:102C400001CF058041E105703FE101CF8DF8000023
:102C500000208DF80100EB46012003E057F804BB8B
:102C60004FF0FF3061074FF0000102D40DE009F191
:102C70000101894641450FDA8145F8DB1BF809104F
:102C80000029F4D108E009F1010189468142FADB0B
:102C90001BF809100029F6D106985346A0EB09004D
:102CA00080462146179A00F094FA284400EB090563
:102CB00005E047E01BF8010B524617999047B9F120
:102CC0000109F7D2534621464046179AFAE001E03F
:102CD0003AE01BE10A21C4F302524FF0000B0091CD
:102CE000022A06D001CFC117032A08D009E022E04A
:102CF00023E0FF1D27F00707F7E8020105E000B217
:102D0000C117042A01D140B2C117002906DA0A46C8
:102D10000021404261EB02012D2202E0220504D590
:102D20002B228DF80420012203E0E20701D02022AB
:102D3000F7E7914653E00A2110E010204FF0000B16
:102D400000900EE0102109E010204FF0000B44F03D
:102D500004044FF00808009003E008214FF0000B36
:102D60000091C4F30252022A04D001CF0021032AA9
:102D700006D007E0FF1D27F00707F7E8020105E08E
:102D800080B20021042A01D1C0B200214FF0000915
:102D9000220724D5BEF1700F2AD0009B83F01003C8
:102DA00053EA0B0309D150EA010206D030228DF814
:102DB00004208DF805E002229146009B83F0080371
:102DC00053EA0B030BD150EA010201D1620706D589
:102DD00030228DF804204FF00109A8F1010841A22A
:102DE000BEF1580F00D044A203920FAA02920FE046
:102DF00040228DF804200122DEE75B46009AFFF7AF
:102E000051FB039B9B5C029AA2F101020292137098
:102E100050EA0102F1D1029807A9A1EB000000F1EC
:102E2000200B600702D524F4803401E04FF0010844
:102E3000002041465A46D84501DDA1EB020000EBD7
:102E40000B01009006984944A0EB01000690E003B6
:102E500006D453462146179A069800F0BAF905445D
:102E6000002008E001A8524610F808001799904782
:102E70006D1C08F1010080464845F3DBE0030CD5EA
:102E800053462146179A069800F0A3F9054404E03A
:102E900030205246179990476D1C0099481E0090AB
:102EA0000029F5DC08E00298029952460078491C96
:102EB0000291179990476D1CBBF10001ABF1010B1A
:102EC000F1DC67E100F072F9054406F101063078A3
:102ED00000287FF409AE19B02846BDE8F08F000045
:102EE0000928010030313233343536373839414220
:102EF0004344454600000000303132333435363724
:102F0000383961626364656600000000600701D4BF
:102F10004FF0060807F1070727F00707A0A1F7E819
:102F2000020C0CF000431A0007D19EA1220504D424
:102F30009DA1E20701D1AFF2440112912CF0004CA7
:102F40007146BEF1650F0ED007DC45290BD046292E
:102F500020D0BEF1470F3DD13DE066291AD0BEF129
:102F6000670F37D137E0002311224146B8F1110F26
:102F700000DA4A1CCDE900230246634607A902A8ED
:102F8000FFF700FD012000904FF0000B08F1010950
:102F9000039868E04FF000410F910123CDE90083D1
:102FA0000246634607A902A8FFF7ECFCDDE904909E
:102FB0004FF0000B20B9039908F1010001EB000963
:102FC000B8EB090003D4C0F1FF3B08F10109A9EBFC
:102FD0000800009048E04146B8F1010F01DA0121F4
:102FE000884600231122B8F1110F00DC0A46CDE912
:102FF00000230246634607A902A8FFF7C3FC4FF06F
:10300000000BC14620070FD40499414503DA8946D5
:1030100001E0A9F10109B9F1010F05DD0299A9F15A
:103020000100085C3028F4D00399414502DA11F11F
:10303000040F03DA01200F91009015E0002903DC52
:103040008B44A9EB010005E0481C484503DD0398CB
:1030500000F1010081460399A1EB0B0000F1010092
:1030600000904FF000400F90200705D4009848458D
:1030700002DB4FF0FF30009000210F980DF1470860
:103080008DF84710B0F1004F26D0022001902B2080
:1030900013900F9800280CDA40420F902D201390C7
:1030A00007E00A210F98FFF7E7F930310F9008F891
:1030B000011D0199481E01900029F2DC0F9800289B
:1030C000EFD1A8F1010213991170317801F02001BC
:1030D00041F0450108F8021D10A9A1EB080000F11C
:1030E000070001901298007800B1012000EB09015F
:1030F000009801EBE071019801440698A0EB0100F3
:10310000A0F101000690E00306D453462146179A29
:10311000069800F05EF805441298007820B15246F7
:103120001799904705F10105E00322D55346214642
:10313000179A069800F04DF805441AE0BBF1000F0D
:1031400007DB0499594504DD029911F80B00179922
:1031500001E0179930205246904700986D1C401EA0
:103160000BF1010B009004D12E2052461799904785
:103170006D1CB9F10001A9F10109DFDC05E018F8C7
:10318000010B5246179990476D1C0199481E0190FA
:103190000029F4DC53462146179A069892E600006F
:1031A0002D0000002B000000200000002DE9F04160
:1031B0000446002517461E46880405D406E0394615
:1031C0002020B04705F10105641EF8D52846BDE86A
:1031D000F0812DE9F04104460025302790461E4637
:1031E000C80300D42027880405D506E041463846A8
:1031F000B04705F10105641EF8D52846BDE8F08109
:1032000020320008000000203C0000006429000873
:103210005C3200083C00002004040000742900080F
:1032200000A24A04000000000000000001020304A4
:10323000060708090000000001020304010203045C
:10324000060708090204060800000000000000004C
:0C32500000000000000000000000000072
:04000005080000ED02
:00000001FF
