:10068C0050726F6772616D2052756E6E696E672164
:02069C000A0052
:0806CB00021405C8021605A087
:10069E007C007D0A120382EF1F70011E144E70F74C
:0106AE002229
:10059800D290E4FFFE12060712069EC290D291E4A2
:0E05A800FFFE1205D212069EC2917F147E0045
:1005B600AB07AA060BBB00010AEB1B70011A144A13
:0C05C60060097F847E0312069E80EE22F6
:0300230002054B88
:07054B00C0E0C0D075D0082C
:10055200309820AF99C298E5102408FDE433FCE5F9
:10056200126D7001EC600CAE120512EE5407243CC1
:10057200F8A60F30991BC299E51165136011AF11EE
:100582000511EF54072444F8E6F599C20A8002C225
:01059200095F
:05059300D0D0D0E032E1
:10063900200A22200905D2098F9922C2ACAE1305DE
:1006490013EE54072444F8A607E5136511540770FF
:0606590002D20AD2AC221D
:10067600AD07BD0A08200AFD7F0D120639200AFDC6
:06068600AF051206392247
:10065F00E512651060FAC2ACAF100510EF54072415
:06066F003CF8E6FFD2ACEE
:010675002262
:10000300E4F510F512F511F513C209C20A4389206C
:0E001300759850758DFD758BFDD28ED2AC2286
:0606D400120003D2AF2268
:10060700C3EF9438EE6480947F500BE5152438FFD0
:10061700E51434FFFE22D3EF94C8EE64809480E59E
:1006270015400824C8FFE43514FE222FFFE5143EC9
:02063700FE22A1
:1005D200C3EF9438EE6480947F500AE51724C8FF75
:1005E200E43516FE22D3EF94C8EE64809480400B6B
:1005F200E5172438FFE51634FFFE22C3E5179FFFF7
:05060200E5169EFE223A
:0E06AF00E5907E0030E2047F0180027F002291
:0E06BD00E5B07E0030E5047F0180027F002260
:1004F1001206D47BFF7A06798C1200881205B2901D
:100501000014D3E58294C8E583648094805024D29A
:1005110090AF82AE8312060712069EC290D291AFAF
:1005210082AE831205AA74142582F582E43583F51F
:100531008380CF1206AF8E248F251206BD8E268FA3
:0A0541002712059812059802050024
:0300000002046592
:0C046500787FE4F6D8FD75814B0204ACF2
:10038200BC000BBE0029EF8DF084FFADF022E4CC5F
:10039200F875F008EF2FFFEE33FEEC33FCEE9DEC28
:1003A200984005FCEE9DFE0FD5F0E9E4CEFD22ED6E
:1003B200F8F5F0EE8420D21CFEADF075F008EF2FB8
:1003C200FFED33FD4007985006D5F0F222C398FDA9
:0503D2000FD5F0EA2246
:10002600E537242BF8E60537227828300702782BA7
:10003600E475F00112042F0203D72000EB7F2ED2C5
:10004600008018EF540F2490D43440D4FF30040BB2
:10005600EF24BFB41A0050032461FFE5386002158F
:1000660038053BE53B7002053A30070D7828E47504
:10007600F00112042FEF02041D0206767403D20764
:100086008003E4C207F5378B288A29892AE4F538E4
:10009600F53AF53BE53860077F2012006180F5757B
:1000A60039FFC201C200C202C203C205C206C208AB
:1000B60012002FFF700D3007057F00120072AF3B54
:1000C600AE3A22B4255FC2D5C20412002FFF24D057
:1000D600B40A00501A75F00A783830D50508B6FF0C
:1000E6000106C6A426F620D5047002D20380D924C0
:1000F600CFB41A00EF5004C2E5D204020272D20154
:1001060080C6D20080C0D20280BCD2D580BAD205C9
:1001160080B47F201200612002077401B5380040C8
:10012600F1120026FF12006102009AD208D2068060
:1001360095120026FB120026FA120026F94A4B7089
:100146000679437A037BFF20022EE538602A7E007B
:100156008E827583001203F060060EEE653970F02C
:10016600C2D5EBC0E0EAC0E0E9C0E0EE1202B9D0C9
:10017600E0F9D0E0FAD0E0FB1203D7FF60AAEBC0AB
:10018600E0EAC0E0E9C0E0120061D0E02401F9D065
:10019600E03400FAD0E0FBE5390460DCD539D980DB
:1001A600877BFF7A0279B5D202809C79108002792A
:1001B60008C206C2088008D2D5790A8004790AC224
:1001C600D5E539047002F539E4FAFDFEFF12002682
:1001D600FC7B08200113120026FD7B1030000A125A
:1001E6000026FE120026FF7B20EC3382D592D550E6
:1001F60013C3E43000069FFFE49EFEE42001039D46
:10020600FDE49CFCE4CBF8C201EC700CCFCECDCC67
:10021600E824F8F870F38017C3EF33FFEE33FEEDF2
:1002260033FDEC33FCEB33FB994002FB0FD8E9EBD3
:10023600300105F8D0E0C448B201C0E00AEC4D4EEA
:100246004F78207B0070C2EAB5390040BCC0E0128E
:1002560002BBD0F0D0E0200104C4C0E0C4B201C0AB
:10026600F012004AD0F0D5F0EB02009A12043F01DA
:10027600375301B15801084C01044201B54F01BD85
:0F0286004401BD49011D4301C35501A74601A70E
:100295004501A747036350010C2D01102E01332B97
:1002A500011423013120034C2A00CC480000012B06
:1002B5003F3F3F00790AA2D5200314300509B91044
:1002C500020404B9080104A2D52006025001042045
:1002D50002689202B538005034C0E07F203003191F
:1002E5007F30A20272067205500F120312C202C2BB
:1002F50006C205C2087F30800F300503E9C0E01251
:100305000061300503D0E0F9D0E0B538CC300517F1
:100315007F30B9100C1200617F583004077F788058
:1003250003B908031200613002057F2D0200617FC9
:10033500202008F87F2B2006F322920280CF286E1A
:10034500756C6C2900D2011200263001F8C20178C3
:100355003830D50108F60200CC2D5043495812001B
:10036500262403B405004001E490035E9312005275
:0D037500743A120052D2037538040201B12F
:100471000204F1E493A3F8E493A34003F68001F2AC
:1004810008DFF48029E493A3F85407240CC8C3338C
:10049100C4540F4420C8834004F456800146F6DF5B
:1004A100E4800B01020408102040809006CBE47E1A
:1004B100019360BCA3FF543F30E509541FFEE49350
:1004C100A360010ECF54C025E060A840B8E493A317
:1004D100FAE493A3F8E493A3C8C582C8CAC583CA42
:1004E100F0A3C8C582C8CAC583CADFE9DEE780BEFA
:0106D3000026
:1003D700BB010689828A83E0225002E722BBFE0224
:0903E700E32289828A83E4932257
:1003F000BB010CE58229F582E5833AF583E02250C2
:1004000006E92582F8E622BBFE06E92582F8E2220B
:0D041000E58229F582E5833AF583E4932225
:10041D00BB010689828A83F0225002F722BBFE01BE
:02042D00F322B8
:10042F00FAE6FB0808E6F925F0F618E6CA3AF622CE
:10043F00D083D082F8E4937012740193700DA3A34C
:10044F0093F8740193F5828883E473740293686060
:06045F00EFA3A3A380DF60
:00000001FF
