:020000040800F2
:1000000078040020D1070008F1040008F304000878
:10001000F7040008FB040008FF04000800000000CB
:1000200000000000000000000000000003050008C0
:100030000505000800000000070500080905000884
:10004000EB070008EB070008EB070008EB070008C8
:10005000EB070008EB070008EB070008EB070008B8
:10006000EB070008EB070008EB070008EB070008A8
:10007000EB070008EB070008EB070008EB07000898
:10008000EB070008EB070008EB070008EB07000888
:10009000EB070008EB070008EB070008EB07000878
:1000A000EB070008EB070008EB070008EB07000868
:1000B0000B050008EB070008EB070008EB0700083A
:1000C000EB070008EB070008EB070008EB07000848
:1000D000EB07000895050008EB070008EB07000890
:1000E000EB070008EB070008EB070008EB07000828
:1000F000EB070008EB070008EB070008EB07000818
:10010000EB070008EB070008EB070008EB07000807
:10011000EB070008EB070008EB070008EB070008F7
:10012000EB070008EB070008EB070008EB070008E7
:10013000DFF80CD002F0D8F8004800476903000847
:100140007804002070B504460D46E1B2C84801F0BD
:1001500062FF00BF8021C64801F0CBFF0028F9D024
:10016000204670BD10B500F0B3FA0121042000F064
:1001700054FE0121880300F050FE0121022000F00E
:1001800059FE0121084600F055FE0121084600F005
:1001900044FE10BD08B58020ADF8000003208DF8A6
:1001A000020018208DF803006946B24800F082FB77
:1001B0004FF40070ADF8000001208DF80200182007
:1001C0008DF803006946AB4800F074FB4FF4806083
:1001D000ADF8000004208DF803006946A54800F042
:1001E00069FB0220ADF8000004208DF80300694689
:1001F000A04800F05FFB08BD10B58AB09E4C41F6E8
:100200001F40ADF8200040F2E730ADF81C000020A0
:10021000ADF82200ADF81E0007A9984800F0B8FF1D
:100220006020ADF80C000120ADF80E000020ADF804
:10023000140003A9914801F02AF808218F4801F021
:1002400018FC01218D4801F0D2FA0020ADF82200FF
:10025000ADF81E00A0B2ADF8200040F2CF20ADF8FE
:100260001C0007A94FF0804000F092FF0420ADF879
:1002700000000020ADF80800ADF80200ADF806005F
:100280000120ADF804006946800701F0F2F901226F
:100290000421080701F0D1FA0121880701F0A7FA2B
:1002A0000AB010BD014642F228324A434FF0E02323
:1002B0005A6100229A6101221A6100BF4FF0E022C8
:1002C000106910F0010F02D010F4803FF6D0002228
:1002D0004FF0E0231A619A6170471FB54FF4165032
:1002E00000900020ADF80400ADF80600ADF808005D
:1002F000ADF80C000C20ADF80A0069465C4801F02E
:100300008EFD012240F22551594801F020FE0121C5
:10031000574801F010FE4021554801F0F7FE1FBD7F
:1003200008B54FF4C06000F0E3FD25208DF8000013
:1003300000208DF8010002208DF8020001208DF8C8
:100340000300684600F0D9FD1C208DF80000002055
:100350008DF8010002208DF8020001208DF80300C5
:10036000684600F0CAFD08BD88B01C2101A801F054
:1003700020FFFFF7F7FEFFF70DFFFFF73DFFFFF749
:10038000CFFFFFF7AAFF41F288313C4801F0C0FCE3
:100390006CE03B4801F019FFF0B3002039490860D8
:1003A0001C2101A801F005FF354901A801F015FF46
:1003B0001421334801F0FDFE33A101A801F016FF1E
:1003C000044601F035FF3149086031A1002001F0F9
:1003D0000DFF044601F02CFF2E49086000BF0846BF
:1003E0000068642834D8294800682B4908602948E7
:1003F00000682A490860284800682949B1FBF0F0E4
:10040000401E254908602548006809684843642162
:10041000B0FBF1F0214900E01FE008601E480068D1
:1004200081B2164801F070FC1C48006881B2134884
:1004300001F06EFC1BA001F0CBFF144801681BA06B
:1004400001F0C6FF134801681BA001F0C1FF04E0E2
:10045000104801681CA001F0BBFF4FF4FA70FFF7D1
:1004600021FF1E4801681EA001F0B2FF91E70000C5
:1004700000380140000801409F8601000004004050
:1004800060000020080000202A0000001400002066
:100490002C000000100000200000002004000020BC
:1004A000401901000D0A2E2E2E0D0A00667265A35A
:1004B000BA256420487A0900726174A3BA256420C1
:1004C00025250D0A000000000D6572726F72A3BA37
:1004D00025642025252E2E2E0D0A00000C0000205C
:1004E000667265A3BA256420487A0D0A00000000F0
:1004F000704700BFFEE700BFFEE700BFFEE700BF9A
:10050000FEE7704770477047704710B50421080731
:1005100001F02DFC01283CD10421800701F038FCBA
:100520003048007848B94FF0804001F004FC2E4973
:10053000086001202B4908702BE02A480078012828
:1005400027D1800701F0F7FB2849086008460068BA
:1005500025490968884207D9244800682249096862
:10056000401A2349086009E0224800681E490968CA
:10057000401A1E49096808441D4908601D48006862
:100580001B490968B0FBF1F01B49086000201549C0
:10059000087010BD10B540F22551184801F0BFFD9C
:1005A00001281DD140F22551144801F0AFFD134838
:1005B00001F035FD1249134A126888540846114962
:1005C0000968405C38B900200D490E4A1268885409
:1005D0000C49086010BD0B480068401C09490860C0
:1005E00000BFF7E7280000201C00002020000020AA
:1005F00018000020240000200C00002000380140DA
:10060000600000200800002000210020674A1268D6
:1006100042F48032654B1A6000BF644A126802F4EB
:100620000030491C10B9B1F5A06FF6D15F4A1268CD
:1006300012F4003F01D0012000E00020012842D147
:100640005B4A126842F01002594B1A601A4612684F
:1006500022F003021A601A46126842F002021A607F
:10066000524A5268514B5A601A4652685A601A46AA
:10067000526842F480625A601A46526822F47C1230
:100680005A601A46526842F4E8125A601A461268D2
:1006900042F080721A6000BF444A126812F0007F74
:1006A000FAD0424A526822F00302404B5A601A467E
:1006B000526842F002025A6000BF3C4A526802F09F
:1006C0000C02082AF9D1704710B5FFF79DFF10BD45
:1006D00010B53648006840F001003449086008460B
:1006E000406834490840314948600846006832494A
:1006F00008402E4908600846006820F48020086001
:100700000846406820F4FE0048604FF41F008860EF
:10071000FFF7DAFF4FF000602849086010BD10B500
:10072000002100200022214B5B6803F00C0121B165
:10073000042906D0082928D107E0214B214C236049
:1007400027E01F4B1F4C236023E0184B5B6803F42A
:100750007010164B5B6803F48032022303EB904069
:1007600022B9194B4343174C23600DE00F4B5B68D4
:1007700013F4003F04D0144B4343124C236003E0B6
:100780000F4B43430F4C236003E00D4B0D4C236094
:1007900000BF00BF054B5B68C3F303130B4CE15C68
:1007A000084B1B68CB40074C236010BD0010024073
:1007B000002002400000FFF8FFFFF6FE08ED00E019
:1007C00000127A002C00002000093D0030000020BB
:1007D0000648804706480047FEE7FEE7FEE7FEE7DB
:1007E000FEE7FEE7FEE7FEE7FEE7FEE7D1060008CC
:1007F0003101000810B50446CA48844208D10121DD
:10080000042000F024FB0021042000F020FB46E03F
:10081000C548844208D10121082000F018FB0021BE
:10082000082000F014FB3AE0C048844208D10121BE
:10083000102000F00CFB0021102000F008FB2EE03F
:10084000BB48844208D10121202000F000FB002198
:10085000202000F0FCFA22E0B648844208D10121B1
:10086000402000F0F4FA0021402000F0F0FA16E0F9
:10087000B148844208D10121802000F0E8FA00212B
:10088000802000F0E4FA0AE0AC48844207D101215C
:10089000801500F0DCFA0021A01500F0D8FA10BD98
:1008A00010B50121084600F0D2FA0021012000F025
:1008B000CEFA10BD2DE9F0410246002500260020A9
:1008C00000230024002791F803C00CF00F0591F8D5
:1008D00003C01CF0100F03D091F802C04CEA0505CC
:1008E000B1F800C01CF0FF0F31D0146800202BE0DD
:1008F0004FF0010C0CFA00F3B1F800C00CEA03064B
:100900009E4220D183004FF00F0C0CFA03F7BC433A
:1009100005FA03FC4CEA040491F803C0BCF1280F6B
:1009200006D14FF0010C0CFA00FCC2F814C00AE02A
:1009300091F803C0BCF1480F05D14FF0010C0CFA3F
:1009400000FCC2F810C0401C0828D1D31460B1F8D4
:1009500000C0BCF1FF0F34DD546800202EE000F130
:10096000080C4FF0010808FA0CF3B1F800C00CEACB
:1009700003069E4221D183004FF00F0C0CFA03F7BF
:10098000BC4305FA03FC4CEA040491F803C0BCF133
:10099000280F05D100F1080C08FA0CF8C2F81480F1
:1009A00091F803C0BCF1480F07D100F1080C4FF0DB
:1009B000010808FA0CF8C2F81080401C0828CED3B1
:1009C0005460BDE8F0814FF6FF7101800221817013
:1009D0000421C17070470246002093680B4201D089
:1009E000012000E0002070470146886880B270470F
:1009F00002460020D3680B4201D0012000E0002015
:100A000070470146C86880B2704701617047416114
:100A100070470AB1016100E041617047C1607047F1
:100A20004FF480320A438261816182618269826906
:100A3000704702460020424B18684FF680731840FA
:100A400040EA021008433E4B186070473D49C861B8
:100A50007047F0B50A46002300240021002500F06D
:100A60000046B6F1004F02D1354EF16901E0344E37
:100A70007168C0F3034583B200F44016B6F5401F19
:100A800008D121F070612E4E766826F070662C4FEA
:100A90007E6012E000F48016B6F5801F06D10326B2
:100AA00006FA05F4A14341F0706106E0460D3601F7
:100AB00003FA06F6B14341F0706122B1460D3601EA
:100AC00003FA06F6314300F00046B6F1004F02D1BA
:100AD0001B4EF16101E01A4E7160F0BD30B500228D
:100AE0008B071C0F0F2303FA04F2154B08338C10ED
:100AF00053F824309343124C08348D1044F82530B9
:100B000023468C1053F824308C07240F00FA04F489
:100B100023430B4C08348D1044F8253030BD0A496E
:100B20000860704700080140000C014000100140BF
:100B30000014014000180140001C01400020014049
:100B40000000014000002042DC002042DB48006839
:100B500040F00100D949086008464068D84908407B
:100B6000D649486008460068D6490840D34908601D
:100B70000846006820F4802008600846406820F499
:100B8000FE0048604FF41F0088607047CB49096839
:100B900021F48031C94A11601146096821F480218D
:100BA0001160B0F5803F03D0B0F5802F0ED106E084
:100BB000C249096841F48031C04A116007E0BF4969
:100BC000096841F4A021BD4A116000E000BF00BFE8
:100BD000704710B501460022002300204A11012A67
:100BE00002D1B64C236806E0022A02D1B34C236A34
:100BF00001E0B24C636A01F01F02012494401C42E0
:100C000001D0012000E0002010BD70B500240025B7
:100C1000002600BF3120FFF7DCFF0646641CB4F558
:100C2000A06F01D0002EF5D03120FFF7D2FF08B120
:100C3000012500E00025284670BD014600209F4A9E
:100C4000106820F0F80040EAC100106070479E492B
:100C50000860704702460020984B586820F47C10CA
:100C600042EA01031843954B58607047964908665D
:100C7000704701460020914A506820F00300084365
:100C8000506070478D48406800F00C007047014686
:100C900000208A4A506820F0F000084350607047F6
:100CA00001460020854A506820F4E0600843506007
:100CB000704701460020814A506820F4605040EAA5
:100CC000C1005060704729B17C4A527A02437B4B85
:100CD0005A7206E0794A527AC343DBB21A40774B24
:100CE0005A72704779490860704701460020734A7C
:100CF000506820F440400843506070470021744A17
:100D000011706E4A82F82010012802D0042808D100
:100D100003E001216E4A117004E005216C4A117054
:100D200000E000BF00BF70476A4908607047634930
:100D3000096A0143614A1162704767490860704758
:100D400030B500210022002400235C4D6D6805F0C1
:100D50000C0121B1042905D0082923D105E05F4DFC
:100D6000056022E05D4D05601FE0544D6D6805F49F
:100D70007012524D6D6805F48034022505EB9242E5
:100D80001CB9574D554305600BE04C4D6D6815F48B
:100D9000003F03D0524D5543056002E04F4D55438F
:100DA000056002E04D4D056000BF00BF434D6D681A
:100DB00005F0F00109094B4D6B5C0568DD404560AD
:100DC0003E4D6D6805F4E061090A464D6B5C45686F
:100DD000DD408560394D6D6805F46051C90A414DAB
:100DE0006B5C4568DD40C560344D6D6805F440417D
:100DF000890B3D4D6B5CC568B5FBF3F5056130BDF6
:100E000029B12E4A526902432C4B5A6104E02B4A05
:100E100052698243294B5A61704729B1274A926926
:100E20000243264B9A6104E0244A92698243234B91
:100E30009A61704729B1214AD26902431F4BDA6196
:100E400004E01E4AD26982431C4BDA61704729B123
:100E50001A4AD2680243194BDA6004E0174AD26892
:100E60008243164BDA60704729B1144A1269024373
:100E7000124B1A6104E0114A126982430F4B1A6146
:100E800070471A49086070470F49C86470470B499A
:100E9000C87170470948406A40F08070074948624D
:100EA000704701460020054A92680A4201D001209D
:100EB00000E000207047014988727047001002402E
:100EC0000000FFF8FFFFF6FE00004242D800424259
:100ED00020100240800442423C04424200127A0048
:100EE00000093D0040000020500000204004424224
:100EF00036490143364A1160704770B5002100231E
:100F00000F22C4784CB3324C246804F4E064C4F576
:100F1000E0644FEA1421C1F1040322FA01F244789B
:100F200004FA03F1847804EA020444EA01014FEA76
:100F30000111284C0678A155047804F01F054FF0E4
:100F4000010404FA05F405784FEA65154FF0E02630
:100F500006EB8505C5F8004109E0047804F01F059B
:100F60000124AC401C4D0678761145F8264070BD32
:100F70001A4A0A4002431A4B1A60704741B1194A93
:100F8000126842EA00024FF0E023C3F8102D07E098
:100F9000144A126822EA00024FF0E023C3F8102D31
:100FA0007047042808D14FF0E021096941F004019D
:100FB0004FF0E022116107E04FF0E021096921F0D4
:100FC00004014FF0E0221161704700000000FA05B3
:100FD0000CED00E000E400E080E100E080FFFF1F96
:100FE00008ED00E010ED00E010B50446FF48844233
:100FF00008D10121C014FFF72AFF0021E014FFF7F8
:1010000026FFC4E0B4F1804F08D101210846FFF764
:101010002BFF00210120FFF727FFB8E0F4488442AE
:1010200008D101210220FFF71FFF00210220FFF756
:101030001BFFACE0EF48844208D101210420FFF7F8
:1010400013FF00210420FFF70FFFA0E0EA488442CD
:1010500008D101210820FFF707FF00210820FFF732
:1010600003FF94E0E548844208D101211020FFF7F6
:10107000FBFE00211020FFF7F7FE88E0E0488442E5
:1010800008D101212020FFF7EFFE00212020FFF7EB
:10109000EBFE7CE0DB48844208D101214014FFF7DD
:1010A000D6FE00216014FFF7D2FE70E0D6488442DD
:1010B00009D10121C804FFF7CAFE00214FF4002026
:1010C000FFF7C5FE63E0D148844209D1012108053C
:1010D000FFF7BDFE00214FF48010FFF7B8FE56E089
:1010E000CB48844209D101214805FFF7B0FE002119
:1010F0004FF40010FFF7ABFE49E0C648844208D128
:1011000001214020FFF7B0FE00214020FFF7ACFE98
:101110003DE0C148844208D101218020FFF7A4FEB0
:1011200000218020FFF7A0FE31E0BC48844208D1B6
:1011300001218015FFF798FE0021A015FFF794FE0E
:1011400025E0B748844209D101210804FFF77FFE5A
:1011500000214FF48030FFF77AFE18E0B148844256
:1011600009D101214804FFF772FE00214FF400303D
:10117000FFF76DFE0BE0AC48844208D101218804E2
:10118000FFF765FE00214FF48020FFF760FE10BDE1
:1011900000220288954B98420ED09A4B98420BD071
:1011A000B0F1804F08D0924B984205D0914B9842B5
:1011B00002D0914B984204D14FF68F731A404B885E
:1011C0001A438E4B984207D08D4B984204D04FF66D
:1011D000FF431A40CB881A4302808B8883850B8893
:1011E0000385824B98420BD0864B984208D08C4B9B
:1011F000984205D08B4B984202D08B4B984201D13C
:101200000B7A038601238382704770B50024002285
:101210000023058C4FF6FE7635400584028C8388CA
:10122000048B4FF68F752C40B51E2C400D882C4337
:10123000751E2A400D892A434D882A436B4DA842CA
:101240000BD0704DA84208D0754DA84205D0754D01
:10125000A84202D0744DA84213D14FF6F7752A4028
:101260004D892A434FF6FB752A408D882A434FF655
:10127000FF652B404FF6FF552B408D892B43CD89C1
:101280002B4383800483CD888586028470BD70B52E
:10129000002400220023058C4FF6EF7635400584AC
:1012A000028C8388048B48F6FF752C404FF6FF456F
:1012B0002C400D882D0644EA15444FF6DF752A4070
:1012C0000D892D0542EA15424D882D0542EA154249
:1012D000464DA84202D04B4DA8421BD14FF67F7518
:1012E0002A404D892D0542EA15424FF6BF752A4026
:1012F0008D882D0542EA15424FF6FF352B404FF2FF
:10130000FF752B408D89AD0443EA1543CD89AD04AB
:1013100043EA154383800483CD880587028470BD2A
:1013200070B5002400220023058C4FF6FF6635407F
:101330000584028C8388848B4FF68F752C404FF682
:10134000FC752C400D882C434FF6FF552A400D8923
:101350002D0642EA15424D882D0642EA1542234DDC
:10136000A84202D0274DA8421BD14FF2FF752A4058
:101370004D892D0642EA15424FF6FF352A408D88E9
:101380002D0642EA15424EF6FF752B404DF6FF75CD
:101390002B408D892D0543EA1543CD892D0543EA60
:1013A000154383808483CD888587028470BD70B5A2
:1013B000002200230024058C4EF6FF76354005847C
:1013C000038C8488828B48F6FF752A404FF6FF45D0
:1013D0002A400D882D0642EA15424DF6FF752B4036
:1013E0000D892D0743EA15434D881FE0002C01406D
:1013F0000004004000080040000C004000100040C5
:101400000014004000340140004C014000500140F5
:101410000054014000180040001C00400020004023
:101420000040014000440140004801402D0743EACC
:101430001543F94DA84202D0F84DA84206D14BF60B
:10144000FF752C408D89AD0544EA15448480828364
:10145000CD88A0F84050038470BD828B4FF2FF33DB
:101460001A408283828B0B0642EA134282837047C2
:10147000F0B50C461546002200210026078C4EF6DA
:10148000FF7C07EA0C070784828B018C27073E0C40
:1014900040F6FF473A402F0642EA17421F0742EA4A
:1014A0001742DD4FB8420ED0DC4FB8420BD0B0F13E
:1014B000804F08D0DA4FB84205D0DA4FB84202D098
:1014C000D94FB84206D14DF6FF77394046F48057E0
:1014D000394305E047F6FF57394044F48057394314
:1014E00082830184F0BD828B4FF6F3731A408283AE
:1014F000828B0A4382837047F0B50C461546002262
:1015000000210026078C4FF6FF6C07EA0C070784C2
:10151000828B018C27063E0C4FF60C773A401F0554
:1015200045EA17473A43BC4FB8420ED0BB4FB842CA
:101530000BD0B0F1804F08D0B94FB84205D0B94FA9
:10154000B84202D0B84FB84206D14FF6FF573940E3
:1015500046F48077394305E04FF2FF57394044F4B1
:101560008077394382830184F0BD028B4FF2FF33D1
:101570001A400283028B0B0642EA13420283704731
:10158000F0B50C461546002200210026078C4FF6C8
:10159000EF7C07EA0C070784028B018C27053E0CC1
:1015A00040F6FF473A401F0742EA17422F0642EA39
:1015B0001742994FB8420ED0984FB8420BD0B0F1B5
:1015C000804F08D0964FB84205D0964FB84202D00F
:1015D000954FB84206D14FF6DF77394046F01007F5
:1015E000394305E04FF65F77394044F0100739433F
:1015F00002830184F0BD028B4FF6F3731A4002831D
:10160000028B0A4302837047F0B50C461546002250
:101610000021068C4FF6FE773E400684028B018C3B
:101620004FF60C7632401E0545EA164632437A4E96
:10163000B0420ED0794EB0420BD0B0F1804F08D0FE
:10164000774EB04205D0774EB04202D0764EB042CF
:1016500006D14FF6FD76314044F00106314305E0F6
:101660004FF6F576314044F00106314302830184A0
:10167000F0BD70B505460C46674885420ED06748F8
:1016800085420BD0B5F1804F08D06548854205D022
:101690006448854202D06448854200D100E000BF22
:1016A000208850B92389A28861882846FFF7ACFFBB
:1016B000E1882846FFF79FFF25E0208804280AD10B
:1016C0002389A28861882846FFF75AFFE1882846C7
:1016D000FFF74BFF17E0208808280AD12389A2884A
:1016E00061882846FFF708FFE1882846FFF7FBFEE0
:1016F00009E02389A28861882846FFF7B9FEE188BE
:101700002846FFF7AAFE70BD2DE9F04105460C46BC
:1017100000260127608808B9022600E00026A0887C
:10172000012801D1022700E001272088A0B92389E0
:10173000A28861882846FFF767FFE1882846FFF7FF
:101740005AFF23893A4631462846FFF719FFE188B8
:101750002846FFF70AFF13E02389A28861882846FC
:10176000FFF70EFFE1882846FFF7FFFE23893A4680
:1017700031462846FFF748FFE1882846FFF73BFF40
:10178000BDE8F0810A884B881A438B881A43CB88BE
:101790001A430B891A434B891A438B891A43A0F8C1
:1017A000442070474FF6FF71818000210180C18085
:1017B0004180017270470021018041808180C18099
:1017C000018141818181C181704700210180418077
:1017D000012181800021C1800181704700210180A9
:1017E00041808180C180018141818181704721B127
:1017F000028842F00102028004E002884FF6FE7384
:101800001A400280704789B1B0F8442042F4004287
:10181000A0F8442010E00000002C014000340140FA
:101820000004004000080040000C0040B0F84420D4
:10183000C2F30E02A0F84420704710B51AB1838994
:101840000B43838104E08389CC43A4B2234083818A
:1018500010BD8182704741EA0203A0F8483070470A
:1018600010B51AB183890B43838104E08389CC438B
:10187000A4B22340838110BD01894FF6F872114054
:10188000018170470A46002101894FF68F73194084
:1018900011430181704730B504460D462946204664
:1018A000FFF7F0FF208940F00700208130BD2DE9CF
:1018B000F04104460D4616461F46602D06D13B46B4
:1018C000012231462046FFF75BFE05E03B46012240
:1018D00031462046FFF798FE29462046FFF7D2FF03
:1018E000208940F007002081BDE8F08130B50C462A
:1018F00000210189C9B21D0642EA15452543294345
:10190000018130BD2DE9F04105460E461746984647
:10191000002443463A4631462846FFF7E7FF2C8924
:101920004FF6F8710C4044F007044FF68F710C40ED
:1019300044F070042C81BDE8F081F0B504460D46FA
:1019400016461F463B46324629462046FFF7CEFF45
:10195000208940F480402081F0BD0185828270475B
:101960000A46002101884FF68F7319401143018008
:101970007047F0B50C4615461E4600210022002394
:101980000189028B038C4FF6F877394021434FF6DB
:10199000FC473A4040F201173A434FF6DD773B40AF
:1019A000370545EA17473B43018102830384F0BDB5
:1019B0000A460021018B4FF68F73194011430183B2
:1019C00070470A460021018B48F6FF731940130641
:1019D00041EA1341018370470A460021818B4FF68B
:1019E0008F7319401143818370470A460021818B10
:1019F00048F6FF731940130641EA1341818370478B
:101A000021B1028842F08002028004E002884FF691
:101A10007F731A400280704721B1828842F004022D
:101A2000828004E082884FF6FB731A408280704700
:101A300021B1828842F00802828004E082884FF659
:101A4000F7731A408280704721B1828842F0010208
:101A5000828004E082884FF6FE731A4082807047CD
:101A60000A460021018B4FF6F77319401143018399
:101A700070470A460021018B4FF2FF73194013068D
:101A800041EA1341018370470A460021818B4FF6DA
:101A9000F77319401143818370470A460021818BF7
:101AA0004FF2FF731940130641EA134181837047D7
:101AB0000A460021018B4FF6FB7319401143018345
:101AC00070470A460021018B4FF6FF331940130679
:101AD00041EA1341018370470A460021818B4FF68A
:101AE000FB7319401143818370470A460021818BA3
:101AF0004FF6FF331940130641EA134181837047C3
:101B00000A460021018B4FF67F7319401143018370
:101B100070470A460021018BC1F30E01130641EA0A
:101B20001341018370470A460021818B4FF67F7372
:101B300019401143818370470A460021818BC1F30C
:101B40000E01130641EA1341818370470A460021C2
:101B5000018C4FF6FD7319401143018470470A460A
:101B60000021018C4FF6F77319401143018470472F
:101B70000A460021018C4FF6DF731940130541EA34
:101B80001341018470470A460021018C4FF67F7390
:101B90001940130541EA1341018470470A460021A8
:101BA000018C4FF6FF531940130641EA134101849B
:101BB00070470A460021018C4FF2FF73194013064B
:101BC00041EA1341018470470A460021018C4DF619
:101BD000FF731940130741EA13410184704730B580
:101BE000002301248C40A3B2048CDD43ADB22C4011
:101BF0000484048C02FA01F5ADB22C43048430BD98
:101C000030B5002304248C40A3B2048CDD43ADB274
:101C10002C400484048C02FA01F5ADB22C430484F8
:101C200030BD70B503460020002418461830012549
:101C30008D40ACB21D8CE643B6B235401D8409B16F
:101C4000082909D100EB6100056825F070050560E1
:101C50000568154305600CE00D1FADB200EB650093
:101C6000056825F4E04505600568160645EA164551
:101C7000056070BD21B1028842F00202028004E0DA
:101C800002884FF6FD731A400280704721B1028826
:101C900042F00402028004E002884FF6FB731A400F
:101CA0000280704721B1828842F08002828004E085
:101CB00082884FF67F731A408280704702884FF601
:101CC000F7731A40028002880A43028070478288B4
:101CD0004FF68F731A40828082880A438280704751
:101CE00002894FF6F8731A40028102890A43028181
:101CF000704702894FF67F731A40028102890A43B6
:101D00000281704781847047818570478186704762
:101D10000187704781877047A0F84010704702889C
:101D20004FF6FF431A40028002880A430280704740
:101D30000146888E70470146088F70470146888F9C
:101D400070470146B1F8400070470146888C7047E3
:101D50000146088D704702460020138A0B4201D0CD
:101D6000012000E000207047CA430282704730B56E
:101D70000246002000230024158A05EA0103958904
:101D800005EA010413B10CB1012000E0002030BDD0
:101D9000CA4302827047000010B50446FC488442E2
:101DA00009D101218803FFF752F800214FF4804048
:101DB000FFF74DF832E0F748844209D10121480489
:101DC000FFF752F800214FF40030FFF74DF825E0FF
:101DD000F148844209D101218804FFF745F8002128
:101DE0004FF48020FFF740F818E0EC48844209D116
:101DF0000121C804FFF738F800214FF40020FFF755
:101E000033F80BE0E648844208D101210805FFF7CA
:101E10002BF800214FF48010FFF726F810BD2DE9B4
:101E2000F04786B005460E460024A24600BFA146F4
:101E30000027B08900B100BF2F462C8A4CF6FF70F6
:101E40000440F08804432C82AC894EF6F310044021
:101E5000B08831890843718908430443AC81AC8A56
:101E60004FF6FF400440B0890443AC8201A8FEF75E
:101E700067FFC748874202D1DDF810A001E0DDF816
:101E80000CA0A88910F4004F08D00AEBCA0000EBA0
:101E90000A1031684900B0FBF1F807E00AEBCA000C
:101EA00000EB0A1031688900B0FBF1F86420B8FB40
:101EB000F0F004012009642101FB1089A88910F4C5
:101EC000004F08D0322000EBC900B0FBF1F000F069
:101ED0000700044308E0322000EB09106421B0FB46
:101EE000F1F000F00F0004432C8106B0BDE8F0874C
:101EF0004FF41651016000218180C18001810C21C5
:101F0000418100218181704710B502460020108A6E
:101F10004FF2FF0318400B884C8823438C882343DF
:101F2000CC8823431843108210BD002101804180DA
:101F30008180C180704721B1828942F40052828140
:101F400004E082894DF6FF731A4082817047F0B534
:101F500003460024002600250020A1F510676A3FF3
:101F600000D100BF1846C1F3421401F01F0601273B
:101F700007FA06F5012C01D10C3004E0022C01D146
:101F8000103000E014301AB107682F43076002E0F8
:101F90000768AF430760F0BD10B51AB1838A0B43E1
:101FA000838204E0838ACC43A4B22340838210BDA1
:101FB000028A4FF6F0731A400282028A0A430282B2
:101FC000704782894FF2FF731A40828182890A43E7
:101FD0008281704721B1828942F00202828104E04D
:101FE00082894FF6FD731A4082817047028A4FF64C
:101FF000DF731A400282028A0A430282704721B1CB
:10200000028A42F48042028204E0028A4BF6FF73A5
:102010001A4002827047C1F308028280704701466D
:102020008888C0F308007047818941F001018181EF
:102030007047028BD2B20283028B42EA01220283F2
:102040007047028B02F47F420283028B0A430283B1
:10205000704721B1828A42F02002828204E0828AA3
:102060004FF6DF731A408282704721B1828A42F0B4
:102070001002828204E0828A4FF6EF731A40828255
:10208000704721B1828A42F00802828204E0828A8B
:102090004FF6F7731A408282704721B1828942F469
:1020A0000042828103E08289C2F30E02828170477E
:1020B00021B1828A42F40062828204E0828A4FF275
:1020C000FF731A4082827047828A4FF6FB731A4070
:1020D0008282828A0A438282704721B1828A42F0D8
:1020E0000202828204E0828A4FF6FD731A408282E5
:1020F000704702460020B1F5007F00D100BF138871
:102100000B4201D0012000E00020704701F4007272
:10211000B2F5007F00D100BFCA430280704770B59E
:1021200002460024002300250020A1F510666A3E27
:1021300000D100BFC1F3421501F01F03012606FACA
:1021400003F3012D02D19689334006E0022D02D11E
:10215000168A334001E0968A33400C12012606FAB3
:1021600004F41688344013B10CB1012000E00020C3
:1021700070BD10B500220023A1F510646A3C00D1A7
:1021800000BF0A1201249440A3B2DC43048010BDB6
:10219000003801400044004000480040004C00402E
:1021A00000500040D2B201E000F8012B491EFBD2E2
:1021B00070470022F6E710B504460846114602466D
:1021C0002046FFF7EFFF204610BD0146002000E04B
:1021D000401C0A5C002AFBD17047034611F8012B12
:1021E00000F8012B002AF9D11846704770B50F4D41
:1021F00000B92868002412E00A4602E09E4203D09B
:10220000521C1378002BF9D1DAB2224305D02BB13E
:1022100024B1002100F8011B04E00446401C0678AC
:10222000002EE9D12860204670BD00005400002037
:1022300070B5064600F0DCF8046805460A22002165
:10224000304600F018F82C6070BD30B50B460146E2
:1022500000202022012409E021FA02F59D4205D345
:1022600003FA02F5491B04FA02F52844151EA2F1EF
:102270000102F1DC30BD2DE9F0470F469146804662
:102280000446002614F8015B2DB100F03FF8006809
:10229000405DC007F6D12B2D02D02D2D18D0641E25
:1022A0004A463946204600F035F827B13968A14240
:1022B00001D1C7F8008071054FF002040BD54042F0
:1022C000002803DD00F094F80460A007BDE8F08763
:1022D00046F48066E4E70028F8DA00F089F8046044
:1022E0006FF00040F2E70000064C074D06E0E068A2
:1022F00040F0010394E8070098471034AC42F6D34D
:10230000FDF71AFFF425000814260008004870475E
:10231000F02500082DE9F05F82460446007800278A
:10232000641C8B461546B946302801D09DB113E098
:1023300014F8010B0127782803D0582801D045B1A3
:102340000AE00DB1102D07D10027102514F8010B5C
:1023500002E0082500E00A250026B0460EE005FB55
:10236000080005FB06F1012701EB10461FFA80F873
:10237000B6F5803F00D3B94614F8010B294600F0AA
:1023800017F80028EBDABBF1000F04D0641E07B980
:102390005446CBF80040B9F1000F06D000F028F801
:1023A00002210160C81EBDE8F09F48EA0640FAE736
:1023B0003A2800D2303820F02002412A01D3A2F17D
:1023C00037004FF0FF32884200D202461046704775
:1023D0000FB4054B10B503A9044A029800F01CF88D
:1023E00010BC5DF814FB00004501000858000020F7
:1023F000004870475C00002002E008C8121F08C1B6
:10240000002AFAD170477047002001E001C1121F75
:10241000002AFBD1704700002DE9FF4F89B0044628
:102420009B46002597E0252832D10027641C4E4AA0
:10243000B84601212378203B01FA03F0104202D074
:102440000743641CF6E720782E2819D114F8010FF1
:1024500047F004072A280ED06FF02F022078A0F151
:10246000300109290CD808EB880102EB410100EB8F
:102470000108641CF2E70A98641C50F8048B0A9067
:102480002078F0B3642808D0692806D075281FD0BA
:102490005A460B9990476D1C5CE00A994FF00A0967
:1024A00001C90A91002804DAC0F100004FF02D01A3
:1024B00002E0390504D52B218DF82010012104E01C
:1024C000F90701D02021F7E700218A4608AE0CE089
:1024D0000A994FF00A0901C90A91F5E74946FFF741
:1024E000B4FE01F1300106F8011D0028F6D1ADEB74
:1024F000060000F12009780701D44FF00108002000
:1025000000E02CE041464A46C84500DD881A804676
:10251000002706E008A85A46C05D0B9990476D1C3D
:102520007F1C5745F6DB04E030205A460B99904754
:102530006D1CB8F10001A8F10108F5DC05E016F802
:10254000010B5A460B9990476D1CB9F10001A9F196
:102550000109F4DC641C207800287FF464AF0DB01E
:102560002846BDE8F08F00000928010000404040E7
:102570004040404040404141414141404040404056
:102580004040404040404040404040404005020202
:1025900002020202020202020202020202202020C1
:1025A000202020202020200202020202020290901D
:1025B000909090901010101010101010101010101B
:1025C000101010101010101002020202020288886F
:1025D000888888880808080808080808080808087B
:1025E0000808080808080808020202024000000063
:1025F0006D2500081426000800000020600000007F
:10260000F823000874260008600000201804000069
:102610000824000800000000000000000000000086
:1026200000000000000000000000000000000000AA
:102630000000000000000000A08601000000000073
:1026400000A24A0400000000000000000102030490
:102650000607080900000000010203040102030448
:102660000607080902040608000000000000000038
:042670000000000066
:0400000508000131BD
:00000001FF
