:10053F0054686520616E737765722069733A25641C
:02054F000A00A0
:030023000204656F
:07046500C0E0C0D075D00813
:10046C00309820AF99C298E5102408FDE433FCE5E0
:10047C00126D7001EC600CAE120512EE54072436AE
:10048C00F8A60F30991BC299E51165136011AF11D5
:10049C000511EF5407243EF8E6F599C20A8002C212
:0104AC000946
:0504AD00D0D0D0E032C8
:1004B200200A22200905D2098F9922C2ACAE130567
:1004C20013EE5407243EF8A607E51365115407708E
:0604D20002D20AD2AC22A6
:10052900AD07BD0A08200AFD7F0D1204B2200AFD9D
:06053900AF051204B2221E
:10051200E512651060FAC2ACAF100510EF54072463
:0605220036F8E6FFD2AC42
:0105280022B0
:1004D800E4F510F512F511F513C209C20A43892093
:0E04E800759850758DFD758BFDD28ED2AC22AD
:06056E001204D8D2AF22F6
:100551007C007D0A120382EF1F70011E144E70F79A
:010561002277
:1004F600AB07AA060BBB00010AEB1B70011A144AD4
:0C05060060097F847E0312055180EE2204
:1000030012056E7BFF7A05793F120088D2907F320A
:100013007E001204F6C2907F327E001204F680EC5A
:0300000002056294
:0C056200787FE4F6D8FD758145020003A7
:10038200BC000BBE0029EF8DF084FFADF022E4CC5F
:10039200F875F008EF2FFFEE33FEEC33FCEE9DEC28
:1003A200984005FCEE9DFE0FD5F0E9E4CEFD22ED6E
:1003B200F8F5F0EE8420D21CFEADF075F008EF2FB8
:1003C200FFED33FD4007985006D5F0F222C398FDA9
:0503D2000FD5F0EA2246
:10002600E5312425F8E605312278223007027825C5
:10003600E475F00112042F0203D72000EB7F2ED2C5
:10004600008018EF540F2490D43440D4FF30040BB2
:10005600EF24BFB41A0050032461FFE53260021595
:10006600320535E5357002053430070D7822E47522
:10007600F00112042FEF02041D0205297403D207B2
:100086008003E4C207F5318B228A238924E4F53202
:10009600F534F535E53260077F2012006180F5758D
:1000A60033FFC201C200C202C203C205C206C208B1
:1000B60012002FFF700D3007057F00120072AF355A
:1000C600AE3422B4255FC2D5C20412002FFF24D05D
:1000D600B40A00501A75F00A783230D50508B6FF12
:1000E6000106C6A426F620D5047002D20380D924C0
:1000F600CFB41A00EF5004C2E5D204020272D20154
:1001060080C6D20080C0D20280BCD2D580BAD205C9
:1001160080B47F201200612002077401B5320040CE
:10012600F1120026FF12006102009AD208D2068060
:1001360095120026FB120026FA120026F94A4B7089
:100146000679437A037BFF20022EE532602A7E0081
:100156008E827583001203F060060EEE653370F032
:10016600C2D5EBC0E0EAC0E0E9C0E0EE1202B9D0C9
:10017600E0F9D0E0FAD0E0FB1203D7FF60AAEBC0AB
:10018600E0EAC0E0E9C0E0120061D0E02401F9D065
:10019600E03400FAD0E0FBE5330460DCD533D980E7
:1001A600877BFF7A0279B5D202809C79108002792A
:1001B60008C206C2088008D2D5790A8004790AC224
:1001C600D5E533047002F533E4FAFDFEFF1200268E
:1001D600FC7B08200113120026FD7B1030000A125A
:1001E6000026FE120026FF7B20EC3382D592D550E6
:1001F60013C3E43000069FFFE49EFEE42001039D46
:10020600FDE49CFCE4CBF8C201EC700CCFCECDCC67
:10021600E824F8F870F38017C3EF33FFEE33FEEDF2
:1002260033FDEC33FCEB33FB994002FB0FD8E9EBD3
:10023600300105F8D0E0C448B201C0E00AEC4D4EEA
:100246004F78207B0070C2EAB5330040BCC0E01294
:1002560002BBD0F0D0E0200104C4C0E0C4B201C0AB
:10026600F012004AD0F0D5F0EB02009A12043F01DA
:10027600375301B15801084C01044201B54F01BD85
:0F0286004401BD49011D4301C35501A74601A70E
:100295004501A747036350010C2D01102E01332B97
:1002A500011423013120034C2A00CC480000012B06
:1002B5003F3F3F00790AA2D5200314300509B91044
:1002C500020404B9080104A2D52006025001042045
:1002D50002689202B532005034C0E07F2030031925
:1002E5007F30A20272067205500F120312C202C2BB
:1002F50006C205C2087F30800F300503E9C0E01251
:100305000061300503D0E0F9D0E0B532CC300517F7
:100315007F30B9100C1200617F583004077F788058
:1003250003B908031200613002057F2D0200617FC9
:10033500202008F87F2B2006F322920280CF286E1A
:10034500756C6C2900D2011200263001F8C20178C3
:100355003230D50108F60200CC2D50434958120021
:10036500262403B405004001E490035E9312005275
:0D037500743A120052D2037532040201B135
:1003D700BB010689828A83E0225002E722BBFE0224
:0903E700E32289828A83E4932257
:1003F000BB010CE58229F582E5833AF583E02250C2
:1004000006E92582F8E622BBFE06E92582F8E2220B
:0D041000E58229F582E5833AF583E4932225
:10041D00BB010689828A83F0225002F722BBFE01BE
:02042D00F322B8
:10042F00FAE6FB0808E6F925F0F618E6CA3AF622CE
:10043F00D083D082F8E4937012740193700DA3A34C
:10044F0093F8740193F5828883E473740293686060
:06045F00EFA3A3A380DF60
:00000001FF
