:020000040800F2
:1000000060020020710100087501000877010008F6
:10001000790100087B0100087D0100080000000054
:100020000000000000000000000000007F01000848
:10003000810100080000000083010008850100081C
:100040008701000887010008870100088701000870
:100050008701000887010008870100088701000860
:100060008701000887010008870100088701000850
:100070008701000887010008870100088701000840
:100080008701000887010008870100088701000830
:100090008701000887010008870100088701000820
:1000A0008701000887010008870100088701000810
:1000B0008701000887010008870100088701000800
:1000C00087010008870100088701000887010008F0
:1000D00087010008870100088701000887010008E0
:1000E00087010008870100088701000800F002F876
:1000F00000F02EF80AA090E8000C82448344AAF194
:100100000107DA4501D100F023F8AFF2090EBAE891
:100110000F0013F0010F18BFFB1A43F0010318473B
:1001200024030000340300000023002400250026DF
:10013000103A28BF78C1FBD8520728BF30C148BF4A
:100140000B6070471FB500F076F91FBD10B510BDEC
:1001500000F035F91146FFF7F5FF00F03EF800F02A
:1001600053F903B4FFF7F2FF03BC00F05DF90000A0
:1001700008480047FEE7FEE7FEE7FEE7FEE7FEE78A
:10018000FEE7FEE7FEE7FEE703480449024A044BA8
:1001900070470000ED0000086000002060020020B1
:1001A00060000020014642F228324A434FF0E0232B
:1001B0005A6100229A6101221A6100BF4FF0E022C9
:1001C000106910F0010F02D010F4803FF6D0002229
:1001D0004FF0E0231A619A61704700F09FF82848B9
:1001E000806940F00100264988612648406820F077
:1001F0007F4040F08060234948602148806940F09A
:100200001C001F4988614FF033301F4908601D49A9
:10021000C1F8000C1D49486008601D490860194973
:10022000C1F800082BE04FF4FA70FFF7BBFF4FF066
:10023000FF30184908604FF001001249C1F80C085E
:100240004FF0FF301149C8604FF4FA70FFF7AAFF72
:100250000020104908604FF0FF300F4908600B493B
:10026000C8604FF4FA70FFF79DFF4FF0FF30094967
:100270000860094908604FF000000449C860D2E7EF
:100280000010024000000140040C01400010014039
:10029000040801400C0C01400C080140014605E037
:1002A000002001E0421CD0B20928FBDB0A00A1F1CA
:1002B0000101F5D1704710B5044603E04FF47A70A0
:1002C000FFF7ECFF2000A4F10104F7D110BD0020DE
:1002D0003449C86008611420486100208861C86101
:1002E0000846006840F001000860084640682E4952
:1002F00008402C494860084600682C4908402949B4
:1003000008600846006820F48020086008464068BD
:1003100020F4FE00486000208860704700B500238C
:100320000022FFF7D4FF1F48006840F480301D49C9
:100330000860002201E0501CC2B21A480068400C5C
:1003400001D1C82AF7DB1A48006840F0320018498A
:100350000860144840681749084312494860084635
:10036000006840F080700860002201E0501CC2B2BA
:100370000C480068400E01D1C82AF7DB09484068E4
:1003800040F002000749486007E006484068C0F3B3
:100390008703501CC2B203F00303022B01D0C82A0A
:1003A000F3DB00BD001002400000FFF8FFFFF6FE87
:1003B0000020024000241D007047704770477546BA
:1003C00000F028F8AE4605006946534620F00700C5
:1003D000854618B020B5FFF7D7FEBDE820404FF0A6
:1003E00000064FF000074FF000084FF0000B21F01F
:1003F0000701AC46ACE8C009ACE8C009ACE8C009EC
:10040000ACE8C0098D4670470446AFF30080204633
:10041000FFF7A7FE00487047000000200148704722
:10042000704700BF0400002001491820ABBEFEE762
:1004300026000200704710B5FFF7F0FF4FF00001F3
:10044000016010BD5404000800000020600200009C
:040450002801000877
:04000005080000ED02
:00000001FF
